:100000009711080193810180171208011302029BC6
:10001000731000309962F3A2023073103000B712EF
:1000200000F49382028003A302001363030823A059
:100030006200978208009382E2FC1681EF3020650F
:10004000EF300061EF302068EF30607AEF307023DE
:10005000EF30806A93020060739052307360017DCC
:08006000EF30D01F01A001A048
:1002000001A0010001A000002971232E1112232C4E
:100210005112232A611223287112232681122324CA
:10022000A1122322B1122320C112232ED110232C7C
:10023000E110232AF1102328011123261111232470
:10024000C1112322D1112320E111FEDF82B586B135
:100250008AAD8EA992A596A11ABD1EB92AB52EB156
:1002600032AD36A93AA53EA1C2BCC6B8F2B4F6B0CA
:10027000FAACFEA88002F32720342324F4F083276D
:1002800084F02322F4F0F32710342320F4F08327A2
:1002900004F02326F4F0F3270030232EF4EE832716
:1002A000C4EF232CF4EEF3273000232AF4EE832747
:1002B00044EF2328F4EEF327B07C2326F4EE8327C3
:1002C000C4EE2324F4EEF327D07C2322F4EE83271C
:1002D00044EE2320F4EE832744F063DD0700032778
:1002E00044F08567FD177D8F9D476315F700EF305C
:1002F000F00DF9A0832744F063D10708032744F0E9
:100300008567FD177D8F8D476319F706B70740E6B0
:100310002326F4EC232404EC832784EC1397C700F2
:100320008327C4EC3E97B70720009107BA97232292
:10033000F4EC832744EC9C430100EF30100AB7072C
:1003400040E6232EF4EC232C04EC8547232AF4EC1E
:10035000832784ED1397C7008327C4ED3E97B70723
:1003600020009107BA972328F4EC832704ED032794
:1003700044ED98C301000100A1A0832744F063C9A4
:100380000702032744F08567FD177D8FAD47631192
:10039000F7029167938787BE3687B2862E86AA8535
:1003A000468582978327C4F091072326F4F009A895
:1003B0008325C4F0032544F0EF3030052326A4F054
:1003C000832784EF739007308327C4F0739017342A
:1003D000832704EF73903700832704EE7390D77C54
:1003E000832784EE7390B77C01008320C11383229E
:1003F000811303234113832301130324C112032513
:10040000811283254112032601128326C11103277D
:10041000811183274111032801118328C110032E64
:100420008110832E4110032F0110FE5F2E308E307D
:100430006E21CE212E228E226A33CA332A358A3586
:100440006A26CA262A278A276638C638263E863E66
:10045000662FC62F316173002030000000000000BD
:10046000000000000000000000000000000000008C
:10047000000000000000000000000000000000007C
:10048000000000000000000000000000000000006C
:10049000000000000000000000000000000000005C
:1004A000000000000000000000000000000000004C
:1004B000000000000000000000000000000000003C
:1004C000000000000000000000000000000000002C
:1004D000000000000000000000000000000000001C
:1004E000000000000000000000000000000000000C
:1004F00000000000000000000000000000000000FC
:1005000000000000000000000000000000000000EB
:1005100000000000000000000000000000000000DB
:1005200000000000000000000000000000000000CB
:1005300000000000000000000000000000000000BB
:1005400000000000000000000000000000000000AB
:10055000000000000000000000000000000000009B
:10056000000000000000000000000000000000008B
:10057000000000000000000000000000000000007B
:10058000000000000000000000000000000000006B
:10059000000000000000000000000000000000005B
:1005A000000000000000000000000000000000004B
:1005B000000000000000000000000000000000003B
:1005C000000000000000000000000000000000002B
:1005D000000000000000000000000000000000001B
:1005E000000000000000000000000000000000000B
:1005F00000000000000000000000000000000000FB
:1006000008020000040200000402000004020000CE
:1006100004020000040200000402000004020000C2
:1006200004020000040200000402000004020000B2
:1006300004020000040200000402000004020000A2
:100640000402000004020000040200000402000092
:100650000402000004020000040200000402000082
:100660000402000004020000040200000402000072
:100670000402000004020000040200000402000062
:100680000402000004020000040200000402000052
:100690000402000004020000040200000402000042
:1006A0000402000004020000040200000402000032
:1006B0000402000004020000040200000402000022
:1006C0000402000004020000040200000402000012
:1006D0000402000004020000040200000402000002
:1006E00004020000040200000402000004020000F2
:1006F00004020000040200000402000004020000E2
:1007000004020000040200000402000004020000D1
:1007100004020000040200000402000004020000C1
:1007200004020000040200000402000004020000B1
:1007300004020000040200000402000004020000A1
:100740000402000004020000040200000402000091
:100750000402000004020000040200000402000081
:100760000402000004020000040200000402000071
:100770000402000004020000040200000402000061
:100780000402000004020000040200000402000051
:100790000402000004020000040200000402000041
:1007A0000402000004020000040200000402000031
:1007B0000402000004020000040200000402000021
:1007C0000402000004020000040200000402000011
:1007D0000402000004020000040200000402000001
:1007E00004020000040200000402000004020000F1
:1007F00004020000040200000402000004020000E1
:100800003367B500FD530D8B79E7B7877F7F9387FB
:10081000F7F710419441B372F6003363F600BE92CD
:10082000B3E262006397720C6318D6065041D4415C
:10083000B372F6003363F600BE92B3E262006398CF
:10084000720A631BD60410459445B372F6003363F5
:10085000F600BE92B3E262006391720A631ED60292
:100860005045D445B372F6003363F600BE92B3E24E
:100870006200639A72086311D60210499449B372F8
:10088000F6003363F600BE92B3E26200639372082F
:100890005105D105E30FD6F613170601939706010C
:1008A000631CF7001357060193D706013305F74081
:1008B0009375F50F91E982804183C1833305F74039
:1008C0009375F50F91E182801377F70F93F7F70F88
:1008D0003305F74082800346050083C60500050501
:1008E00085056313D60065FA3305D640828011056D
:1008F0009105E312D6FE014582802105A105E31C86
:10090000D6FC014582803105B105E316D6FC0145D0
:1009100082804105C105E310D6FC014582803D433C
:100920002A876373C3029377F700BDEFADE5937633
:1009300006FF3D8ABA960CC34CC30CC74CC741078F
:10094000E36BD7FE11E28280B306C3408A069702AA
:10095000000096966780A6002307B700A306B7009D
:100960002306B700A305B7002305B700A304B7000B
:100970002304B700A303B7002303B700A302B70003
:100980002302B700A301B7002301B700A300B700FB
:100990002300B700828093F5F50F93968500D58DDF
:1009A00093960501D58D61B79396270097020000B5
:1009B00096968682E78086FA9680C1171D8F3E96AE
:1009C000E374C3F8A5B72A83AE8832872A88AE8736
:1009D00063950620B9659385452E63F1C80CC16601
:1009E0006377D60A9336061093C616008E063355E3
:1009F000D600AA9583C5050013050002AE96B3057F
:100A0000D540630BD500B397B800B356D300331766
:100A1000B600D58F3318B3009355070133D3B7020F
:100A2000131607014182B3F7B7021A85B3086602AD
:100A30009396070193570801D58F63FC1701BA9766
:100A40001305F3FF63E7E70063F517011305E3FF01
:100A5000BA97B3871741B3D8B702420813580801B1
:100A6000B3F7B702B3061603C2073368F800C687A8
:100A7000637BD8003A989387F8FF6366E800637455
:100A8000D8009387E8FF42055D8D81458280370558
:100A90000001C146E36DA6F4E14691BF11E2029068
:100AA000C167637FF6089336061093C616008E065C
:100AB000B357D600BE9583C70500B69793060002CC
:100AC000B385F6406395F608B387C84085459358CB
:100AD000070133DE170313160701418293560801FD
:100AE000B3F7170372853303C603C207D58F63FCC0
:100AF0006700BA971305FEFF63E7E70063F5670039
:100B00001305EEFFBA97B387674033D31703420844
:100B100013580801B3F71703B3066602C207336818
:100B2000F8009A87637BD8003A989307F3FF6366CF
:100B3000E8006374D8009307E3FF42055D8D82806F
:100B4000B7070001C146E365F6F6E14695B73317EE
:100B5000B600B3D6F80013550701B357F3003318A6
:100B6000B30033D3A60213160701B398B80041822D
:100B7000B3E71701B3F6A602B30866029395060120
:100B800093D60701CD8E9A8563FC1601BA9693051C
:100B9000F3FF63E7E60063F516019305E3FFBA96FA
:100BA000B3861641B3D8A602C207C183B3F6A60224
:100BB00033061603C206D58FC68663FCC700BA97F4
:100BC0009386F8FF63E7E70063F5C7009386E8FFC5
:100BD000BA97C205918FD58DDDBD63E0D514C1678D
:100BE00063FEF60213B70610134717000E07B96726
:100BF000B3D5E6009387472EAE9783C70700BA9711
:100C000013070002B305F7406311F7020545E3EF50
:100C100016E73335C300134515008280B70700017E
:100C20004147E3E6F6FC6147D9B73357F600B39680
:100C3000B600D98E33D7F800B398B800B357F30095
:100C4000B3E7170193D80601B35E170313980601A3
:100C5000135808013316B60033771703330ED80341
:100C60001315070113D70701498F7685637CC701E8
:100C700036971385FEFF6367D7006375C701138539
:100C8000EEFF36973307C741335E1703C207C183B0
:100C9000337717033308C8034207D98F728763FC81
:100CA0000701B6971307FEFF63E7D70063F5070157
:100CB0001307EEFFB6974205416E598D9306FEFF6E
:100CC0003377D500B3870741F18E13580501418270
:100CD000B308D702B306D8023307C7023308C802E5
:100CE0003306D70013D7080132976373D700729881
:100CF00093560701C29663E0D702E398D7D8C1673D
:100D0000FD177D8F4207B3F8F8003313B300469701
:100D10008145E37DE3D67D158DBB8145014582800C
:100D20001C41032E4500832E85005445984183AF16
:100D3000450003AF850083A8C5004111732620003C
:100D4000216513D606017D151393060193950801BD
:100D500013D8F601698E93D6080113530301C1819C
:100D6000E98E93D8F801631CA60033E5C70133650B
:100D7000D5013365650025E56397C60819A063981A
:100D8000A6003365F7013365E5014D8D15ED054589
:100D90006395C6026393E7026311FE03639FEE014E
:100DA000631DB3006300180389EA33E5C7013365A7
:100DB000D501336565003335A00041018280736041
:100DC000180091A00145D5BF21657D156319A602C4
:100DD000B3E7C701B3E7D701B3E767008DC34203A9
:100DE00013530341E35D03FCA167FD170545E3963B
:100DF000F6FC3367F7013367E7014D8F5DDFC2050E
:100E0000C185E3DE05FA05454DBF832F05000328A4
:100E10004500032E850083A20500484583A84500B0
:100E200083AE8500D4454111F3272000A1671356F6
:100E30000501FD17931505011393060113D706014C
:100E40007D8EC1817D81135303017D8FFD82631CE3
:100E5000F600B367F801B3E7C701CD8FC5C3736070
:100E600018007955B1A06319F700B3E71201B3E791
:100E7000D701B3E76700E5F741E6B367F801B3E7E9
:100E8000C701CD8F93B7170009EB33EF1201336F12
:100E9000DF01336F6F00630B0F0481EB6394A600D7
:100EA000635AC70031C17D5521A07D5591C2368559
:100EB000410182806354E60065FDF5B7E364B3FE4B
:100EC00063986502E3E0CEFF6317DE03E3EC08FD01
:100ED00063141801E3E8F2FDE36018FF63141801DE
:100EE000E3EC5FFC0145E9B70545D9B7E5FF5DBF18
:100EF000E3E465FCC5BFE361DEFDEDB7E307C7F6DC
:100F000051FF814759B7832F050003284500032E61
:100F1000850083A20500484583A8450083AE85006F
:100F2000D4454111F3272000A16713560501FD1791
:100F3000931505011393060113D706017D8EC18118
:100F40007D81135303017D8FFD82631CF600B3671F
:100F5000F801B3E7C701CD8FC5C373601800094519
:100F6000B1A06319F700B3E71201B3E7D701B3E704
:100F70006700E5F741E6B367F801B3E7C701CD8F36
:100F800093B7170009EB33EF1201336FDF01336FB3
:100F90006F00630B0F0481EB6394A600635AC700D4
:100FA00031C17D5521A07D5591C236854101828098
:100FB0006354E60065FDF5B7E364B3FE639865022C
:100FC000E3E0CEFF6317DE03E3EC08FD63141801D2
:100FD000E3E8F2FDE36018FF63141801E3EC5FFC43
:100FE0000145E9B70545D9B7E5FF5DBFE3E465FC19
:100FF000C5BFE361DEFDEDB7E307C7F651FF8147EB
:1010000059B7317126DB4ED752D556D35ECF62CD5C
:10101000AA89DC418841984583AAC500032C0600B3
:101020004442832B8600032AC60006DF22DD4AD90C
:101030005AD166CB6AC96EC773292000A166139482
:101040000A0113DB0A014180FD16D6D6AAD0BED212
:10105000BAD42AD83EDA3ADC22DE337BDB0093DADC
:10106000FA01630B0B026301DB10C1675D8C22DEAA
:101070001C185010D8479447F1170E07F582558F6A
:1010800098CBE319F6FEC2578E073ED8F177850755
:101090003E9B814C0144EDA0B3E6A700D98EC18EE2
:1010A000638F067A25C02285EF20804A2A84930622
:1010B00044FF93D75640FD8AADCA71563386C702A6
:1010C0001305000293080103158D1307C600469708
:1010D0003306C040639BE8061386F7FF8A0718189B
:1010E00093870705BA9742573317D70023A8E7FA23
:1010F0000506717B0A0681450818450B0D30330B38
:101100008B4041BF19C73A85EF2080441304050284
:1011100079BF99C73E85EF20A0431304050441BF62
:10112000EF2000431304050659B771563386C702F2
:1011300078188D46B305C7008C41FD1671174CC356
:10114000E3DAF6FE1386F7FF65B70C430328C7FF03
:101150003303C700B395D5003358A800B3E50501A4
:101160002320B3007117BDB7C98FD98FC18F638B8F
:10117000076E420441841344F4FF7D8012048D4CB9
:1011800013150A01216793570A0141817D17D2D6B1
:10119000E2D0A6D2DED4E2C0A6C2DEC4AAC6F98FCF
:1011A000135AFA016382076C6389E7784167598DA6
:1011B000AAC698004C185447104771178E067582BE
:1011C000D18E14CBE399E5FE06470E07BAC07177BE
:1011D0000507BA970147DA973EC485073EC2939741
:1011E0002C00D98FA946B3C44A0163C0F67A894658
:1011F00063C7F676FD17854663F7F67C42560645CB
:10120000C1681388F8FF935206019357050133769E
:10121000060133750501B305C5023383A20213D756
:101220000501B386C7029A963697B383F2026373B9
:101230006700C69316439356070133770701B3F54A
:10124000050142072E97135F030133730301B3882F
:1012500062023AC6BAD03308CF023307C3024698B7
:1012600093550701C295B38BE20363F415014168FE
:10127000C29B13D80501C16842C01388F8FFB3F5BB
:10128000050133770701C205BA953387B600D256F8
:101290003AD093DF0601B3F606013387A602338AFC
:1012A000AF0213580701B38ED702D29E7698338EC1
:1012B000F70363734801469E93580801F298C16A88
:1012C000468B9388FAFF3377170133781801338EF2
:1012D0006F0242083A98B3886602330ADF0213D7D6
:1012E0000801729A5297B30EFF036373C701D69E2B
:1012F000135E0701416C769E930EFCFF3377D70196
:10130000B3F8D8014207B30D1701A64872CA13DE1D
:101310000801B3F8D801B38EC802B38C120313D7F7
:101320000E01B30ACE02E69A5697338AC20363735C
:101330009701629A935A0701569A416D52CC130A4B
:10134000FDFF33774701B3FE4E01420776973AC857
:101350006257935E070133774701B30AA702338AC6
:10136000AE02B38CE702D29C13DA0A01669AB38C00
:10137000AE02338CD70363739A016A9C935C0A01B3
:10138000669C62CE416C7D1C337A8A01B3FA8A0175
:10139000420A330D5A01025AD293024AB3B5B3003E
:1013A000C2932E9A5E9A33B80301B30C6A01B38BD1
:1013B0000C01B38ABB01B3BC6C01B3BB0B0133E8B6
:1013C0007C01333ABA00429A4248D245B3BDBA01D1
:1013D000C29AB3BC0A0162482E9AB305BA012E988C
:1013E000B30B9801428B7248EA9A33BDAA015E980A
:1013F0001EC09ED2B303A8011EC8D243B3B5B50127
:10140000B3BB9B01333A7A00E243336ABA00D6D4C5
:10141000B3357B00F243B3EB7501B3057A01333882
:101420007800C24333BAA30133684801C2952ECA7B
:10143000B64513DA0501B3F585013388C502B38BD0
:10144000B2023306CA02330C7601135608016296C3
:10145000B382420363747601416CE292935B0601AE
:10146000DE92C16C938BFCFF16CEF252337676017E
:10147000337878014206429613D80201B3F2720122
:10148000B38BA202338C070313DD0B013305A802D3
:10149000B3875702AA97EA9763F3A700669C13D510
:1014A00007016295C16C2AD01385FCFFE98FB3FB5D
:1014B000AB00C207B38D77013385D802B38B1F030E
:1014C000135D0501B307DE02DE97EA97338CCF0385
:1014D00063F37701669C93DB0701B3838B01416C57
:1014E000930BFCFFB3F7770133757501C207AA9719
:1014F000B38B6E023E8B1ED2B307E302330DEF02B5
:1015000013D507015E9D6A95B30CDF036373750104
:10151000E29C935B0501DE9CC16BFD1B337575017D
:101520004205B3F77701D243AA97724C42451E9CFD
:10153000329582533336C500B30BCC006E95B33D64
:10154000B501DE935A95338DB3011EC8B3336501DF
:101550001ED49253225B3E95EA93B337F5003ED6F4
:101560001ECADA93B38793011E8BB253B3BBCB0071
:101570004246BE931ECCF243333DBD01B3B7970143
:10158000333C7C008253B36B7C01B30CEE023336E8
:101590007600336DA60192535246338CAB01AAD626
:1015A000B33B7600A25333367B00E243325B33E633
:1015B000CB006296B3BB6301B3E77701B30DF600CE
:1015C000B38B1E033386E802DE9C93570601E69731
:1015D000330CDE0363F47701C16B5E9C93DB070180
:1015E000C16CE29B138CFCFFB3F787013376860155
:1015F000338DBF02C2073E96338CB602B306DA02C1
:1016000093570C01EA96B697B38F4F0363F3A70184
:10161000E69F93D60701416DB69F9306FDFFF58FB8
:10162000B376DC00C207338C6202BE9633036802D5
:1016300093570C01B30C0F03330F5F021A9FFA97F5
:1016400063F36700EA9C13DF0701669FC16C138395
:10165000FCFF338DBE02B3F7670033736C00C20723
:101660003E93338CE5023307EA0293570C016A97E5
:10167000BA97B38E4E0363F3A701E69E13D7070113
:10168000416DBA9E1307FDFFF98FC2073377EC0057
:10169000B30C0E033E97330E5E02B3875802B308B5
:1016A000180313DC0701469E729C63731C01EA9CBD
:1016B00093580C01E698468BC168138EF8FF337C73
:1016C000CC0193180C01B3F7C701C6973EC8E24797
:1016D000338D7D01B33B7D01B29733B6C700B30CA8
:1016E000CD00B697B3B6D700B38DFC01338CDD00C7
:1016F0009A97B308EC01BED8B3B767003383F800FC
:10170000B3BCCC00333CDC0033B6FD01B303E300D3
:10171000B3EB9B013333F30033668601B3B8E801C2
:10172000B3E868005E96469633B7E300B388B2022A
:101730007696B306E60033B7E6003336D601518F0E
:101740004246DA96B387C300B305B802BEDAB3B730
:10175000C7003386F600B337F600B3B66601DD8EF8
:1017600093D7080133080A03330A5A022E9AD297F4
:1017700063F4B700C1652E98B3F5C701C205B3F88D
:10178000C801C695C1832E96BA97B335B600B697F1
:10179000AE973E980247B2473605B2DCD98FB3EA1E
:1017A000FA00C2DE336555019C109018D847944B5F
:1017B0004D83B606558F98C39107E319F6FE265759
:1017C00086573335A000BACC16575D8DB657BACAC6
:1017D00037071000BECEAAC8F98F638F071E7E059B
:1017E0009C08F0089843D4430583FE06558F98C3A0
:1017F0009107E319F6FEF6473335A0008583BECE88
:10180000C647C98FBEC892479166FD16BE966354FF
:10181000D02AC64713F77700630A071C8945564745
:101820007646136414006302B91C8D456309B91A26
:10183000631E091A93F5F70011456389A51A9107EC
:10184000BEC893B747003E97BACA3337F700E6479A
:10185000BA97BECCB3B7E700B297BECE41AA014B50
:10186000854C0DB8894C3DB0B3E78401B3E77701EF
:10187000C98FFDC339CDEF10B04DAA84938644FFC4
:1018800093D75640FD8ABDCA71563386C7021305E9
:10189000000293080104158D1307C600469733060E
:1018A000C040639DE8061386F7FF8A0718189387E0
:1018B0000705BA9706473317D70023A0E7FC0506AC
:1018C0000A0681458800EFF08F85F177C507858F7F
:1018D00011B263880B005E85EF10904793040502F8
:1018E00071BF99C42685EF10B0469304050479B7FB
:1018F0006285EF10F0459304050649B771563386AB
:10190000C702F8008D46B305C7008C41FD1671175C
:101910004CC3E3DAF6FE1386F7FF55B70C430328F2
:10192000C7FF3303C700B395D5003358A800B3E50C
:1019300005012320B3007117ADB7B3E48401B3E40C
:101940007401C98C0947E3880488420541850D4725
:10195000E3430588414441B081470547ADB885461A
:10196000B397F60093F6075385EA93F68708B9EA2A
:1019700093F70724E38407884144216AD2CE82CCBE
:1019800082CA82C87D1A8144C1A8BD46E387D7FEBA
:10199000AD466389D702D684C257BEC8D257BECAE5
:1019A000E257BECCF257BECE89476388FC328D47E2
:1019B000E385FCFC8547E398FCE482CE82CC82CAB6
:1019C00082C821A6D2848647BA8CBEC89647BECAB2
:1019D000A647BECCB647C1BFA2473EC22DB599E4CB
:1019E000A107BEC893B78700B9BDFDF8F647370712
:1019F0001000368A7D8F09CB3707F0FF7D17F98FEE
:101A0000BECE9247116A3E9A9C08F0089843D44390
:101A10000D83F606558F98C39107E399C7FEF647E5
:101A200021679306E7FF8D83BECE63D746038947C0
:101A3000630EF9068D477D176307F90063160900E9
:101A400081473A8A21A0EDDCFD57368ABECEBECC56
:101A5000BECABEC813645400F647460ABE04135AF1
:101A60001A01B3E444012316F106231791064646F2
:101A7000D6466647B65719C073201400FA506A5408
:101A800023A0C90023A2D90023A4E90023A6F900BA
:101A9000DA544A592A5A9A5A0A5BFA4B6A4CDA4C77
:101AA0004A4DBA4D4E85BA5929618280D1DC8147B1
:101AB000130AF7FF61BF054AB1EEC647764A13F72E
:101AC000770039C389455647664613641400630C92
:101AD000B9028D456304B9026318090293F5F70052
:101AE00011456383A502910793B747003E973337AB
:101AF000F7003A963336E600329A39A091E4A1070E
:101B000093B78700E5B7E5FC135A4A01134A1A0058
:101B1000137A1A000547B306D7409307400763CAF4
:101B2000D716130B010513D556405A87814A8147B2
:101B30006395A702FD8A9317250095E60D465A87FF
:101B4000098EB305F7008C4185060CC31107E35AD3
:101B5000D6FE91473385A74099A810438507110702
:101B6000B3EACA00F1B713870705101832970327A5
:101B700007FD130800023308D84033170701B3EA02
:101B8000EA003306FB003307F0408D478148898F18
:101B900063C0F80811478A073305A74093870705F4
:101BA0001818BA9776473357D70023A8E7FC914B0C
:101BB0003386AB400A050A0681455A95EFE03FD6C9
:101BC0004647B3375001D98FBEC813F7770025CBEE
:101BD0000947F646136414006302E9060D476309DA
:101BE000E904631E090413F7F700630A77059107F8
:101BF000BEC893B7470056473E97BACA3337F70077
:101C0000E647BA97BECCB3B7E700B697BECE05A8F5
:101C10000C4203234600330EE600B3D5D500331340
:101C20000301B3E565002320BE00850811068DB7CA
:101C300099E4A107BEC893B7870075BFFDF8764742
:101C4000B7070800F98F99CB82CE82CC82CA82C8AE
:101C500013641400631C0A02054AFDBB9306CB0003
:101C600083270B0003274B00110B8D837607D98F39
:101C7000232EFBFEE316DBFEF6478D83BECEE30D7F
:101C80000ADC137A1400E3090ADC014A1364240015
:101C9000E1B3D646C647D58FE646D58FF646D58FF3
:101CA0009DC382CE82CC82CABAC88947136414000D
:101CB0006303F9028D47630CF9009547630B090034
:101CC000C6478D83BEC813642400014A71B3EDF882
:101CD000A547BEC8F5B7EDFCE5B7216A82CE82CC38
:101CE00082CA82C87D1A8DBB5971D2CCD6CAE6C2CF
:101CF0002A8A86D6A2D4A6D2CAD0CECEDAC8DEC66A
:101D0000E2C4EAC09441D8419C4583AAC50003239C
:101D10000600832846000846832CC600F3292000CD
:101D20003EDC3EC493970A01C18313941A008A854E
:101D300056DE3EC636D83ADA36C03AC2458093DA25
:101D4000FA01130641FFAE872E88D8479447F11752
:101D50000E07F582558F98CBE319F6FE024993974B
:101D60000C01C183139C1C000E0946DA46CA930875
:101D700001012ADC66DE2ACC3ECE4AC01AD81AC837
:101D8000135C1C0193DCFC015000C6874685D847D4
:101D90009447F1170E07F582558F98CBE319F6FE9D
:101DA000C244A167FD178E0426C86319FC00624770
:101DB000D247D98F7247D98FC58F99E393CC1C0036
:101DC000B3078441639D5C6F6359F024124BA24BAF
:101DD000B24C63130C0A52466247F245B366E60002
:101DE000CD8EC58E8DEA21677D176390E70233673C
:101DF0007B01336797013367270101CB13DC2C018B
:101E0000134C1C00137C1C00120C4AD05AD25ED416
:101E100066D66284E5A49386F7FF9DEACA945A9633
:101E200026D0B3B42401B30796003ED23336660100
:101E3000B3B797005D8E5E97B307C7003ED43337C4
:101E40007701B3B7C7005D8FE6952E97854789A2C6
:101E500021677D17E390E77A33677B01336797014A
:101E600033672701014419C713D42C01134414000C
:101E7000058812044AD089AC21677D176317E402F4
:101E8000B3677B01B3E79701B3E72701014799C720
:101E900013D72C0113471700058B1207A2874AD0CE
:101EA0005AD25ED466D63A8491AC7247B70608001F
:101EB000558F3ACE13074007E342F774BE8693D797
:101EC00056404686814401476315F702FD8A139701
:101ED00027008DE60D461D8EB385E8008C418506F2
:101EE000910823AEB8FEE359D6FE1147B307F74079
:101EF000B1A00C4205071106CD8CF9B713060704F3
:101F00000A96032606FD130800023308D84033164C
:101F10000601D18CBA983306E0400D4701431D8F6E
:101F2000634CE30C1146B307F64072460A071307E9
:101F300007040A97B356D6002328D7FC11461D8EF6
:101F40008A073E950A068145EFE07F9DC247B3347C
:101F50009000C58F3EC84247D2474A97DA973AD099
:101F600033372701B386E70036D2B3B6E6006247BF
:101F7000B3B76701D58F5E97B306F70036D4B3B613
:101F8000F600F24733377701558FE6973E97A287E1
:101F9000370608003AD6798E8256E308065237068D
:101FA000F8FF7D16718F3AD68507FE061810681067
:101FB00010434C430582FE054D8E10C31107E319F3
:101FC000A7FE325705833AD63337D0008256558F55
:101FD0003AD021677D17639FE7486386094C0D4718
:101FE0006399E94C63810A4CFD573ED63ED43ED2FC
:101FF0003ED0A167F91765A983A5080003AE480084
:10200000B38EC800B3D5D500331E0E01B3E5C501AC
:1020100023A0BE000503910821B7524BE24BF24CBE
:1020200063840720B3078C4045E49246224732453B
:1020300033E6E600498E336626010DEA21677D17F7
:10204000639EE70033677B0133679701458F19C7AC
:1020500013D42C01134414000588120426D05AD23C
:102060005ED466D681466388071EF9A41386F7FFFF
:1020700015EA2699DA964AD033399900B3872601B2
:102080003ED2B3B66601B3B72701DD8E5E97B307C4
:10209000D7003ED433377701B3B7D7005D8F66954D
:1020A0002A976DB321677D17E390E75633677B016D
:1020B00033679701458F014419C713D42C0113448A
:1020C00014000588120426D05AD25ED466D63DA0EC
:1020D00021677D176316EC02B3677B01B3E79701B5
:1020E000C58F014499C713D42C01134414000588EB
:1020F000120426D05AD25ED466D6E28781462DAC31
:102100003247B7060800558F3AC613074007E34128
:10211000F7503E8693070002B347F602AE860144AD
:102120000147634BF7023E8763D30700014793786B
:10213000F60193962700639608020D4601471D8E0F
:102140003385D5000841050788C19105E35AE6FEAD
:102150001147B307F74089A8884205079106498CC3
:10216000C9B7130500023366A6020A07130707045E
:102170000A97032707FCB6950143B306D040330600
:10218000C5403317C700598C0D471D8F634EE306BA
:102190009146B387F640B2460A07130707040A9729
:1021A000B3D616012320D7FC114701466345F7003B
:1021B0001D8F131627008A073305F8008145EFE0CD
:1021C0000FF6824733348000C18F3EC002479247EA
:1021D0002697DA973AD033379700B386E70036D29E
:1021E000B3B6E6002247B3B76701D58F5E97B30653
:1021F000F70036D4B3B6F600B24733377701558FC0
:10220000E6973E97E28769B3884103AE4500B38EF7
:10221000D50033551501331ECE003365C50123A00B
:10222000AE00050391059DB7216593071400930641
:10223000E5FFFD8E1246A24532476390061EB36746
:10224000B600D98FB3E72701631F0412D9E326D064
:102250005AD25ED466D682551256A2563257B3E78A
:10226000C500D58FD98FE386072832DA2ED836DC21
:102270003ADE1C185010D8479447F1170607FD8224
:10228000558F98CBE319F6FEC257860713F77700F0
:10229000E30907240947F25613641400E381E92493
:1022A0000D47E387E922E39E092213F7F700114661
:1022B000E309C722910793B7470052573E97333738
:1022C000F700E257BA97B3B7E700B6973EDE6F0064
:1022D0005021B3677B01B3E79701C58F91E74AD0DF
:1022E00032D22ED43AD685BFCA94329B26D0B3B40C
:1022F0002401B3079B003ED2333BCB00B3B797001A
:10230000336BFB00AE9BB3876B013ED4B3BBBB000A
:10231000B3B76701B3EBFB006697BA9BB70708003A
:10232000B3F7FB0099E35ED63DB7B707F8FFFD179B
:10233000B3FBFB005ED68547025713767700E307B1
:10234000061C0946B25513641400E38FC91A0D46E2
:10235000E384C91AE39C091A1376F7001145E307D1
:10236000A61A11073AD01337470012563A9632D2BE
:102370003336E600225732973AD43337C7002E97C8
:102380003AD66F00B0187D15631FA404E388072AAE
:102390001354270113441400058812046312AC0679
:1023A00033657B0133659501458DE30205283707C9
:1023B000040033F7EC00E300072885CFA1673ED681
:1023C00002D402D202D01C104C08D8479047F11713
:1023D0000E077582518F98CBE399F5FE8257814A9B
:1023E0008E073ED019A86314AC00014455BF0144C8
:1023F00081EB26D05AD25ED466D6A167FD172DBFD9
:10240000336B7B01336B9B01336B9B00E3180BFA3F
:102410004AD032D22ED43AD6CDB7CA94329B26D0E7
:10242000B3B42401B3069B0036D2333BCB00B3B622
:102430009600AE9B336BDB00B3866B0136D4B3BB27
:10244000BB00B3B666016697B3EBDB00BA9B5ED602
:1024500018106C101443504385827E06D18E14C32D
:102460001107E399E5FEA166FD1632576387D70091
:1024700005833AD681460144C1B5638609020D47FA
:10248000639EE90063810A02FD573ED63ED43ED2E8
:102490003ED0A1678146F917154479BD0947E395F8
:1024A000E9FEE3830AFE02D602D402D202D08146BC
:1024B000E5B70947E39AE9B2E3880AB2EDB7635694
:1024C000F01C124BA24BB24C631E0C06D245624369
:1024D0007247B3E66500D98EC58EE38606901388F1
:1024E000F7FF63140804B30699403306BB40333545
:1024F000D900B337CB00098E01456376D900B38587
:10250000654113B51500B3856B405D8DB3B8BB0055
:10251000898D09C5B307734113B817003387EC40A1
:10252000B36718011D8F85470DA221677D17E385CD
:10253000E7929307400763D5070302CE02CC02CA95
:1025400085476DA821677D17E30CE4927247B706B3
:102550000800558F3ACE13074007E340F7FE3E8848
:1025600093575840C686814401476318F702137891
:10257000F80113972700631708020D4681461D8E48
:10258000B385E8008C418506910823AEB8FEE35977
:10259000D6FE1147B307F740B1A090420507910658
:1025A000D18CE1B7930607048A9683A606FD9305AE
:1025B0000002B3850541B396B600D58CBA98B30630
:1025C000E0400D4701431D8F6340E30A9146B38706
:1025D000F640F2460A07130707040A97B3D6060126
:1025E0002328D7FC11461D8E8A073E950A06814591
:1025F000EFE0EFB2C247B3349000C58F3EC8C24689
:102600005247B306D9403306EB40B337D900B33550
:10261000CB001D8E81476376D9003307674193371E
:1026200017006247CD8F0145B385EB4033B8BB003F
:102630009D8D89C73307774113351700724733657E
:102640000501A2873387EC40098F36D0B706080012
:1026500032D23AD62ED43376D70063080666FD16FA
:10266000758F3AD63E8449A903A6080003AE4800F8
:10267000B38ED80033560601331EBE003366C60142
:1026800023A0CE000503910881B7D24B624B724D57
:1026900063850722B3078C404DEC9248224E3247A7
:1026A000B3E6C801D98EB3E626019DE621677D1702
:1026B000639EE70033E76B013367A701458F19C7B6
:1026C00013542D01134414000588120426D05ED241
:1026D0005AD46AD6E68A79B21383F7FF63140304E7
:1026E000B386244133861B41B3B5D400B3B7CB00C6
:1026F00001450D8E63F6D400B388784113B51800F8
:10270000B305CB415D8D3338BB00898D09C5B30757
:102710006E4113B317003307ED40B36703011D8FFC
:10272000E68A11B521677D17639AE76E33E76B017F
:102730003367A701458F014419C713542D01134472
:1027400014000588120426D05ED25AD46AD6E68ACE
:1027500075B221677D176315EC02B3E76B01B3E730
:10276000A701C58F014499C713542D0113441400C8
:102770000588120426D05ED25AD46AD6E287C1BF39
:102780003247B7060800558F3AC613074007634B18
:10279000F7683E8393070002B347F302AE86014415
:1027A0000147634AF7023E8763D307000147137569
:1027B000F301939627000DE50D4601471D8E3385E5
:1027C000D5000841050788C19105E35AE6FE114787
:1027D000B307F74089A8904205079106518CD1B7FD
:1027E000130600023363C3020A07130707040A979C
:1027F000032707FCB6958148B306D04033036640F3
:1028000033176700598C0D471D8F63C8E808914640
:10281000B387F640B2460A07130707040A97B3D6F0
:10282000A6002320D7FC114701466345F7001D8F02
:10283000131627008A073305F8008145EFE02F8E35
:10284000824733348000C18F3EC082461247B38630
:10285000D4403386EB40B3B7D400B3B5CB001D8E64
:10286000814763F6D4003307774193371700224737
:10287000CD8F0145B305EB403338BB009D8D89C733
:102880003307674113351700324733650501E28787
:102890003307ED40098FE68A4DBB904103AE4500FA
:1028A000B38ED5003356A600331E6E003366C601C4
:1028B00023A0CE008508910589BF216893061400E6
:1028C0001307E8FFF98E1246A245324563990618B0
:1028D000B3E76B013367B600B3E7A701498FC58F34
:1028E0003367270171E809EF26D05ED25AD46AD641
:1028F000E68AE3920796938AE9FF93BA1A00A1BA8F
:1029000091E74AD032D22ED42AD6B1B2B307994039
:1029100033037641B338F900B3366600B308134188
:1029200001476374F90013371300558FB38665416F
:10293000B3BED500338EE640014819C313B8160064
:102940003368D8013307A54133070741370808002A
:102950003AD672D446D23ED03378070163080804D1
:10296000338924413386CB40B3B72401B3BBCB00BA
:102970001D8E814763F4240193371300B3EB770175
:10298000B305BB40333BBB008147B38575416384CE
:102990000B0093B716003305AD40B3E767011D8DFB
:1029A0002AD62ED432D24AD0E68A75B0B3E71701C0
:1029B000B3E7C701D98F35BF7D18631604056309D6
:1029C00007481354250113441400058812046312A8
:1029D0000C09638C0746B7070400B377FD006384D6
:1029E00007462DC3A1673ED602D402D202D01C10E6
:1029F0004C08D8479047F1170E077582518F98CB36
:102A0000E399F5FEE1BA63140C010144D9B729E357
:102A10008DEBA1673ED602D402D202D01C104C0826
:102A2000D8479047F1170E077582518F98CBE399DD
:102A3000F5FE8257814A41448E073ED0A167FD17BB
:102A4000E5B8014426D05ED25AD46AD6E68A75B279
:102A50000144C9FB4AD032D22ED42AD679BAB3085F
:102A6000994033037641333E1901B3366600330E85
:102A7000C34101476374190113371300558F33881D
:102A8000654133BF0501B30EE840814619C3933653
:102A90001800B3E6E6013307A541158FB706080015
:102AA0003AD676D472D246D0F98E638C060E33892C
:102AB00024413386CB4033B72401B3BBCB00198EFE
:102AC000014763F4240113371300B305BB40B36B14
:102AD0007701333BBB00B385754163840B009337AB
:102AE00018003305AD4033EB6701330565412AD645
:102AF0002ED432D24AD0E68A325569C1EF00502531
:102B0000930445FF1307000213F5F401B3C7E40271
:102B100071C993080102B3E6E4023306D740F156C7
:102B2000B386D7021387C6004697B306D040639B8F
:102B3000E80C02571386F7FF8A07938707048A97E2
:102B40003317A70023A0E7FE05060A0681450810F3
:102B5000EFD0FFDC63C38416818C8504130500026B
:102B600033C5A402141036870144814763CBA70AFA
:102B7000AA8763530500814713F8F4011317250052
:102B80006316080A0D468147098EB385E6008C411D
:102B900085078CC29106E35AF6FE91473385A7401C
:102BA000D1A8B3E7C801B3E7D701D98FB1F7938AAA
:102BB000E9FF93BA1A0001446FF0EFE9225511C5FD
:102BC000EF0010191305050225BF125511C5EF00BE
:102BD0003018130505042DB70255EF0070171305C3
:102BE000050639BF71563386C70278108D46B30586
:102BF000C7008C41FD1671174CC3E3DAF6FE13864D
:102C0000F7FF99B70C430328C7FF3303D700B395E9
:102C1000A5003358C800B3E505012320B3007117A0
:102C200039B7104385071107518C89B79306000205
:102C3000B3E4D4028A07938707048A9783A707FE21
:102C40008148858EB397D7005D8C1C103386E700D2
:102C50008D473307E040898F63C1F804114733057E
:102C6000A74032578A07938707048A97335707018B
:102C700023A0E7FE9147014663C5A700898F1396FD
:102C800027001C100A053E958145EFD05FC9025709
:102C9000B3378000D98F3ED039BF0C4203234600A2
:102CA000330EE600B3D505013313D300B3E5650059
:102CB0002320BE008508110645B73257B706F8FF36
:102CC000FD16758FB30794403AD601446FF08FB963
:102CD00063990A00A10793B787006FF00FDEE39BAB
:102CE0000AFEF2568147D18293C61600858A6FF09C
:102CF000AFE481476FF08FC0639A0A0021073AD092
:102D0000133787006FF06FE6E39A0AFE91C61377D8
:102D1000140019C3136424003257B7060800F98E53
:102D2000B9C2B706F8FFFD16758FA1663AD68507BA
:102D30001387F6FF6399E7020147638009020D4696
:102D40006398C900638B0A007D579387E6FF31A023
:102D50000946E39BC9FEE3890AFE3AD63AD43AD241
:102D60003AD01364540018106C10144350438D82F1
:102D70007606D18E14C31107E319B7FEB256216649
:102D80001307F6FF8D8236D6639EE70092550257F1
:102D90004D8FA2554D8F558F11C732D602D402D216
:102DA00002D0814AB255C607C583BE0AB3EAFA000B
:102DB000231EB102231F5103025692562257F25787
:102DC00019C073201400B65026542320CA002322B1
:102DD000DA002324EA002326FA0096540659F6491D
:102DE000D64A464BB64B264C964C064D5285664A03
:102DF000656182809307400763D3D78C02CE02CCF3
:102E000002CA85476FF00F959307400763D4C7B098
:102E100002C602C402C285476FF02FBB930740076A
:102E2000E3DA679602C602C402C2854731BC6391E9
:102E300007DE6FF00FDC41446FF02FD863078CDAA8
:102E400001446FF00FDB414469BEE31507C0D1B602
:102E5000E3108CBC5DBE1841032E4500104583284D
:102E6000C5000111F327200091679395180013986E
:102E700008013AC072C232C446C63AC872CA32CCDD
:102E8000C5819386E7FF1358080163CBB600F5E5CB
:102E90003367C701518F3365070165E105618280A2
:102EA00093D8F8011385D701C686635AB502370552
:102EB00000801345F5FF46956384080CF90763917C
:102EC000F50C935716013E08B3E70701D5EB3367BE
:102ED000C7013E06598E79D273A01600C1B741676B
:102EE0009387F7063368E8008D8F42CE93D657401C
:102EF0001008014E01470C4205071106336EBE0053
:102F0000E39BE6FEFD8B139626008DE393070602F6
:102F100033862700832706FF3EC8424563840800A6
:102F20003305A0408546E3190EFA8DBF130606024D
:102F30000A96032606FF130700021D8FB315E6004D
:102F4000336EBE00F916B315E8003356F60001459E
:102F5000014793B616004D8E634DD70011C11AC8B4
:102F60000A07130707020A97B357F8002328F7FE4A
:102F70006DB7328305450547C5B785460145A9BFED
:102F8000C14699BF397126DA06DE22DC4AD84ED610
:102F9000AA84CDCD93D7F54133C4B7001D8C2285CB
:102FA00013D9F5017523930715059169F90913D70D
:102FB000574022C802CA02CC02CEFD8BB389A94079
:102FC0008DC789466312D708930600029D8EB356BB
:102FD000D40036CE1306F7FF0A07130707020A9735
:102FE0003314F400232887FE05A08D47998F8A07A4
:102FF000938707028A9783A707FF09463ECE894732
:103000006314F70022CC0546050681450A06080828
:10301000EFD0FF90CA85F2471394F5003364340172
:10302000231781002316F1004246D2466247B24779
:10303000F250625490C0D4C098C4DCC44259B25912
:103040002685D254216182800D4769B702CE02CC19
:1030500002CA02C88149C1B739714AD84ED606DEC4
:1030600022DC26DA52D4AA892E89F3272000935431
:1030700046019317C60093F4F47FB18313871400BD
:103080002EC83ECA02CE02CC1377E77F1354F60156
:103090002DC393D64700116736CEF20793D645006D
:1030A000130707C0D58F1399C50126973ECC4ACA8E
:1030B00002C88144F2473E04598C2316F1002317BD
:1030C0008100C2455246E246B24799C073A014003F
:1030D000F250625423A0B90023A2C90023A4D9004E
:1030E00023A6F900D2544259225A4E85B259216181
:1030F000828033E5B700CDE401474DDDA1C73E85B1
:1031000081292A8A13071A03935757407D8B1DCFB5
:1031100071563386C7021305000293080101198D09
:103120009306C600C6963306C040639CD804138637
:10313000F7FF8A07938707028A973317E90023A8C6
:10314000E7FE25A03121130A05026DBF71563386B3
:10315000C70278088D46B305C7008C41FD1671176C
:103160004CC3E3DAF6FE1386F7FF05060A0681452F
:103170000808EFD0CFFA11671307C7C033074741DC
:1031800015BF8C4203A8C6FF3383C600B395E50084
:103190003358A800B3E505012320B300F11671B739
:1031A00015C51397C70193D64500558F93D43701A2
:1031B0003ACC9183216793C414001399C501D98F28
:1031C00092044ACA02C83ECE7D17EDB581442167FC
:1031D000E5BF397122DC06DE26DA4AD814415841AF
:1031E0001C454045F32420003ECC3ED493170401F7
:1031F000C1831318140036C836D0141022CE3ED620
:103200003ACA3AD2935818017D804C08B687368561
:10321000D0479847F1170E067583598E90CBE399E6
:10322000B7FE82552168138718008E059307E8FFC3
:103230002ED07D8F6300071AF1779387074033887C
:10324000F8009307E07F63D30707638304248D4767
:10325000639AF400630E04221308E07FFD577D5546
:10326000014719A88947E399F4FE63130422014733
:103270001308E07FFD577D559545894693E5150078
:103280006383D42A8D46638BD42881EC93F6F700B0
:1032900011466388C60093864700B3B7F6003E9593
:1032A000B687630C071E93E52500C5AA6350000589
:1032B000A256B257125713D6C6019207D18F3ED2EB
:1032C00093174700CD8F71839206B337F000558F67
:1032D000D98F1255630C08100147814593F677008A
:1032E000C9FE630C071A13F7150065BF9307C0FCEE
:1032F0006356F80002D285470148E1BF3257B7074D
:1033000008001306D003D98F330606413ED6135763
:1033100056403688014981458328080085051108F3
:1033200033691901E31AB7FE7D8A9315270015E268
:103330000D468147198E3388B6000328080085079B
:1033400023A006019106E358F6FE91473387E74034
:10335000A1A013880502930801014698032808FFDD
:10336000130300023303C3403318680033690901B3
:10337000AE963308B0408D45014E998D634BBE0229
:1033800091468A053387E640938605020C08B69578
:10339000B3D6C70023A8D5FE1146198E0A073A9561
:1033A0000A068145EFD0AFD70257B3372001D98F36
:1033B000A1B783A8060083AE4600338F0601B3D8B9
:1033C000C800B39E6E00B3E8D80123201F01050E8C
:1033D00091066DB79257A256325633E5D700518DFC
:1033E0004D8D639C0804B337A00001453367F50099
:1033F0006301071293D6F7011317150036979396BA
:10340000170013F6760081451DC209466389C4067C
:103410000D46638DC404854599E813F6F6001148FE
:103420006307060193B6C6FF93C6160036976183FD
:1034300013471700058B014855B579C57D1881459F
:10344000639808019355260193C515008589920557
:1034500013954600F183F1821206C98FD18E37058C
:103460004000E19B558D1308F07F8DBDA28561F072
:1034700093B686FF93C61600369785454DBF8545A2
:103480005DD493B686FF93C616003697A28545B7DE
:103490001308F07F81470145954537078000698F04
:1034A00011CB05081307F07F6302E808370780FF98
:1034B0007D17798D13D737009306F07F9317D501C9
:1034C000D98F135735006319D800D98F014789C7A1
:1034D0003707080081470144931648013706F07FFB
:1034E0003207F18E3183558F7E04B36687003EC468
:1034F00036C699C173A01500F25062542245B245F8
:10350000D254425921618280814781451308F07F5E
:1035100069B7814701450148814541B7E31304D8A4
:10352000938687009DBBE30E04D6DDBF814789CC1F
:103530000D476397E40009C8FD571308E07F29A0F1
:103540000947E39BE4FE6DD893E555003E859DB7A2
:10355000C1676375F5029337051093C717008E078F
:103560003967930600029D8E3355F5009307472E69
:10357000AA9703C507003385A6408280370700015C
:10358000C147E36FE5FCE147E1BF011122CE001026
:103590002326A4FE2324B4FE2322C4FE81473E85B5
:1035A000724405618280011122CE00102326A4FE00
:1035B00081473E85724405618280011122CE001050
:1035C0002326A4FE2324B4FE81473E857244056170
:1035D0008280011122CE00102326A4FE81473E8561
:1035E000724405618280011122CE00102326A4FEC0
:1035F0002324B4FE2322C4FE81473E857244056124
:103600008280011122CE00102326A4FE81473E8530
:10361000724405618280411122C6000881473E85BF
:10362000324441018280011122CE00102326A4FEE3
:103630002324B4FE81473E857244056182800111D6
:1036400022CE00102326A4FE010072440561828070
:10365000011106CE22CC0010F327A07C2326F4FE15
:103660008327C4FE0100898BB337F00093F7F70F6F
:1036700093C7170093F7F70F91C7AD20930720402A
:1036800073A0A77C0100F2406244056182800111B1
:1036900022CE0010F327A07C2326F4FE8327C4FE4D
:1036A0000100858BB337F00093F7F70F93C717002E
:1036B00093F7F70F89C79307103073A0A77C010019
:1036C000724405618280011122CE0010DD47A307FC
:1036D000F4FE8347F4FE7390C77C0100010072443E
:1036E00005618280411122C60008996773A0A77CFA
:1036F00001003244410182805D71A2C68008856765
:103700009387078073B047300100232204FE2320F3
:1037100004FEB70700E4232EF4FC832744FE232C89
:10372000F4FC832704FE232AF4FC832784FD1397EB
:10373000C7008327C4FD3E97B7072000BA97232808
:10374000F4FC832704FD032744FD98C30100010016
:10375000232604FEA1A8232604FC8327C4FE2324D9
:10376000F4FCB70700E42322F4FC8327C4FC2320E5
:10377000F4FC832784FC232EF4FA832704FC13979C
:10378000C700832744FC3E97B70720009107BA97EC
:10379000232CF4FA832784FB0327C4FB98C301007E
:1037A00001008327C4FE85072326F4FE0327C4FEF9
:1037B0009307F007E3F1E7FA232404FE39A88327EF
:1037C00084FE13972700B72700E4BA9723A00700C9
:1037D000832784FE85072324F4FE032784FE8D4778
:1037E000E3FFE7FC010001003644616182800111C2
:1037F00022CE0010138701229387811BB307F74065
:103800002324F4FE232604FE29A80327C4FE93875D
:10381000811BBA97238007008327C4FE85072326D0
:10382000F4FE0327C4FE832784FEE360F7FEB70798
:10383000100113870700B707100193870700B3072C
:10384000F7402324F4FE232604FE39A80327C4FEF0
:10385000B707100193870700BA97238007008327D3
:10386000C4FE85072326F4FE0327C4FE832784FEB7
:10387000E36EF7FCB707080013870700B7070800D7
:1038800093870700B307F7402324F4FE232604FEA2
:1038900039A80327C4FEB707080093870700BA9723
:1038A000238007008327C4FE85072326F4FE032711
:1038B000C4FE832784FEE36EF7FC1387811BB707E2
:1038C000080193870700B307F7402324F4FE23265B
:1038D00004FE3DA00327C4FEBD67938707F73E970C
:1038E0008326C4FEB707080193870700B6970347EE
:1038F00007002380E7008327C4FE85072326F4FE04
:103900000327C4FE832784FEE366F7FCBD671387A5
:1039100007F7BD67938707F7B307F7402324F4FE43
:10392000232604FE35A00327C4FEC1679387879230
:103930003E978326C4FEBD67938707F7B697034774
:1039400007002380E7008327C4FE85072326F4FEB3
:103950000327C4FE832784FEE367F7FC1387811BDC
:103960009387811BB307F7402324F4FE232604FE2C
:103970002DA00327C4FEC167938787923E978326B5
:10398000C4FE9387811BB697034707002380E70097
:103990008327C4FE85072326F4FE0327C4FE83275E
:1039A00084FEE368F7FCB707100113870700B70729
:1039B000100193870700B307F7402324F4FE232662
:1039C00004FE3DA00327C4FEC167938787923E97FC
:1039D0008326C4FEB707100193870700B6970347F5
:1039E00007002380E7008327C4FE85072326F4FE13
:1039F0000327C4FE832784FEE366F7FCB7070800AD
:103A000013870700B707080093870700B307F7403D
:103A10002324F4FE232604FE3DA00327C4FEC16731
:103A2000938787923E978326C4FEB7070800938743
:103A30000700B697034707002380E7008327C4FEEB
:103A400085072326F4FE0327C4FE832784FEE3664E
:103A5000F7FC01000100724405618280411106C635
:103A600022C40008D528EF1070480100B24022445B
:103A700041018280411122C6000801003244410107
:103A80008280011106CE22CC00101387811B938700
:103A9000811BB307F74089872324F4FE232604FE05
:103AA00031A81387811B8327C4FE8A07BA979C43DA
:103AB00082978327C4FE85072326F4FE0327C4FECE
:103AC000832784FEE36FF7FC1387811B9387811B99
:103AD000B307F74089872324F4FE232604FE31A888
:103AE0001387811B8327C4FE8A07BA979C4382975A
:103AF0008327C4FE85072326F4FE0327C4FE8327FD
:103B000084FEE36FF7FC01000100F24062440561AE
:103B10008280011122CE0010232604FE8327C4FEDA
:103B200093E727002326F4FE8327C4FE93E71700BC
:103B30002326F4FEB70700E42324F4FE8327C4FE03
:103B40002322F4FE832784FE032744FE98C301004A
:103B50000100724405618280797106D622D4001872
:103B6000A1472320F4FE232E04FC832704FEF3B791
:103B70000730232EF4FC8327C4FD0100856793875B
:103B8000078073B0473001006937856793870780E6
:103B900073A047300100A1472322F4FE832744FE8F
:103BA00073A007300100F32760302326F4FE83273B
:103BB000C4FE2324F4FE832784FE93E7170073904A
:103BC00067300100B250225445618280411122C603
:103BD00000080100324441018280411122C60008E0
:103BE0000100324441018280797122D600182326D7
:103BF000A4FE2324B4FE2322C4FE2320D4FE232EBD
:103C0000E4FC0100325445618280011122CE001093
:103C10002326A4FE2324B4FE0327C4FEBD4763EC81
:103C2000E7008327C4FE13972700B9679387473EB1
:103C3000BA979C4382870100832784FE3E857244A5
:103C400005618280011122CE00102326A4FE03C745
:103C500001209D4763E7E70283C70120BE861387E3
:103C6000811B93972600BA970327C4FE98C383C786
:103C70000120138717009376F70F2380D12023802C
:103C8000F1200100724405618280797106D622D448
:103C90000018232EA4FC232604FEA9A01387811B51
:103CA0008327C4FE8A07BA979C4385CB1387811B61
:103CB0008327C4FE8A07BA979C439C43BE8503258D
:103CC000C4FDEFC0FFB3AA8789EB1387811B83274D
:103CD000C4FE8A07BA979C4321A88327C4FE8507A0
:103CE0002326F4FE0327C4FE9D47E3D9E7FA814764
:103CF0003E85B250225445618280797106D622D425
:103D000000182326A4FE2324B4FE2322C4FE23206D
:103D1000D4FE232EE4FC83A7412099C3FD5789A03C
:103D20000325C4FE9D372A8723A2E12083A74120D3
:103D300099E3FD5735A083A74120DC438326C4FDCA
:103D4000032604FE832544FE032584FE829783A771
:103D500041209847ED45B9671385072202978147AF
:103D60003E85B250225445618280011106CE22CC9C
:103D700000102326A4FE2324B4FE2322C4FE83A71E
:103D8000412099CF83A741209847832744FEC2074B
:103D9000C183BE85032584FE0297832744FE09A0C4
:103DA0003E85F240624405618280797122D6001816
:103DB000232EA4FCAE87231DF4FC232604FE035708
:103DC000A4FD9307702563F8E7000357A4FD93074C
:103DD000F05563F4E70089470DA08327C4FD984B95
:103DE000FD777D8F8356A4FD8567FD17F58F5D8F69
:103DF0008327C4FD98CB8327C4FE3E85325445619A
:103E00008280011122CE00102326A4FEAE87A305D6
:103E1000F4FE0347B4FE914763F4E700894715A811
:103E20008347B4FE0327C4FE85079E07BA97D8438D
:103E3000B707007AFD17B376F7008347B4FE37075C
:103E40000002558F8326C4FE85079E07B697D8C308
:103E500081473E85724405618280797122D60018BF
:103E6000232EA4FCAE87A30DF4FC0347B4FD9147B9
:103E700063F4E700894765A08347B4FD0327C4FDC9
:103E800085079E07BA97DC432326F4FE0327C4FE6A
:103E9000B7070002F98F99E3814751A08327C4FE39
:103EA00063D707028347B4FD0327C4FD85079E0738
:103EB000BA97D4438347B4FD370700801347F7FF11
:103EC000758F8326C4FD85079E07B697D8C38347A1
:103ED000B4FD0327C4FD85079E07BA97D4438347E3
:103EE000B4FD370700FE7D17758F8326C4FD850757
:103EF0009E07B697D8C38347B4FD0327C4FD850743
:103F00009E07BA97D4438347B4FD37070080558F87
:103F10008326C4FD85079E07B697D8C381473E8593
:103F2000325445618280011122CE00102326A4FE66
:103F3000AE87A305F4FE8347B4FE0327C4FE9E07A5
:103F4000BA9703A7070AB7070008F98FB337F0003D
:103F500093F7F70F3E85724405618280011122CEEE
:103F600000102326A4FEAE87A305F4FE8347B4FE0B
:103F70000327C4FE9E07BA9783A7070A898BB33726
:103F8000F00093F7F70F3E857244056182807971E6
:103F900006D622D40018232EA4FCAE87232AC4FC04
:103FA000A30DF4FC8327C4FD91C70347B4FD9147DB
:103FB00063F4E70089475DA4032744FDB7175A1649
:103FC0009387F7BB63FAE700032744FDB7572183C4
:103FD0009387076063F4E700894749A4832744FD7A
:103FE0002322F4FE8347B4FD0327C4FD85079E0703
:103FF000BA979C43E18393F7F7032324F4FE8347A6
:10400000B4FD0327C4FD85079E07BA979C43D1835F
:104010009D8B2320F4FE032784FE832704FEB30731
:10402000F70237376E0113070760B357F70203270C
:1040300044FEB357F7022326F4FE0327C4FE856728
:104040009387079663FBE704832784FEFD172324E9
:10405000F4FE032784FE832704FEB307F7023737F5
:104060006E0113070760B357F702032744FEB357E7
:10407000F7022326F4FE0327C4FE8567938707967D
:1040800063FAE706832784FEFD172324F4FE032743
:1040900084FE8547E3EFE7FA8DA00327C4FEBD4702
:1040A00063EDE704832784FE85072324F4FE0327BA
:1040B00084FE832704FEB307F70237376E01130728
:1040C0000760B357F702032744FEB357F7022326CE
:1040D000F4FE0327C4FEBD4763E0E702832784FEA6
:1040E00085072324F4FE032784FE9307E003E3F00F
:1040F000E7FC21A0010011A00100032784FE930723
:10410000F00363EFE702832784FE9DCB0327C4FE01
:1041100085679387079663E5E7020327C4FEBD47DB
:1041200063F0E702B7376E0113870760832784FEC9
:104130003357F702B7470F009387F72363E6E7008B
:1041400099679387A79D19AA8347B4FD0327C4FDE8
:1041500085079E07BA979C43A18B8DEB8347B4FDDF
:10416000BE850325C4FD71398347B4FD0327C4FD13
:1041700085079E07BA9798438347B4FD1367870066
:104180008326C4FD85079E07B69798C38347B4FD71
:104190000327C4FD85079E07BA979C43E18393F7E5
:1041A000F703032784FE6305F7048347B4FDBE8548
:1041B0000325C4FDB9318347B4FD0327C4FD85073A
:1041C0009E07BA979843B70700C1FD17B376F7006B
:1041D000832784FE13978701B707003F7D8F8347AE
:1041E000B4FD558F8326C4FD85079E07B69798C3F7
:1041F0008347B4FD0327C4FD85079E07BA979847F8
:10420000FD77B376F7000327C4FE8567FD177D8F22
:104210008347B4FD558F8326C4FD85079E07B69757
:1042200098C78347B4FDBE850325C4FD3D3111A069
:1042300001008347B4FDBE850325C4FDED31AA8787
:1042400089CF8347B4FDBE850325C4FD013BAA8702
:1042500093C7170093F7F70FE1FF81473E85B250F0
:10426000225445618280397122DE80002326A4FC1D
:10427000AE87A305F4FC8327C4FC91C70347B4FCB5
:10428000914763F4E700894715A28347B4FC0327ED
:10429000C4FC85079E07BA97D843B7070002F98F79
:1042A00099C3814721A28347B4FC0327C4FC850737
:1042B0009E07BA979C43E18393F7F7032324F4FE08
:1042C0008347B4FC0327C4FC85079E07BA979C4329
:1042D000D1839D8B2322F4FE032784FE832744FE93
:1042E000B307F70237376E0113070760B357F702BA
:1042F0002320F4FE8347B4FC0327C4FC85079E07F4
:10430000BA979C43A18B9DC78347B4FC0327C4FC89
:1043100085079E07BA9798478567FD17F98F232E63
:10432000F4FC032704FE8327C4FDB307F70223260A
:10433000F4FE9DA88347B4FC0327C4FC85079E07B1
:10434000BA97DC4793F7F70F232EF4FC8347B4FCAE
:104350000327C4FC85079E07BA97DC4713D787005D
:10436000B7070001FD17F98F232CF4FC832704FE07
:10437000538717D28327C4FDD38617D2832784FDA2
:10438000538617D2B96787B78724D377F61AD3F73E
:10439000F6025377F712B96787B70725D377F70285
:1043A000D39717C22326F4FE8327C4FE3E8572549A
:1043B00021618280011122CE00102326A4FE232435
:1043C000B4FE832784FE83C70700960713F707020E
:1043D000832784FE83C717009207C18B5D8F8327D5
:1043E00084FE83C7270093C7170093F7F70F86074C
:1043F000898B5D8F8327C4FE98DB010072440561C1
:104400008280011122CE00102326A4FE2324B4FEB4
:10441000832784FE716713070720D8C3832784FE90
:104420000D47A384E700832784FE238507008327A5
:1044300084FE23840700832784FE05472387E70043
:10444000832784FE23860700832784FEA385070035
:10445000832784FEA3860700832784FEA3870700A3
:10446000832784FE23880700832784FEA388070010
:104470000100724405618280597186D6A2D4CAD2E5
:10448000CED0D2CED6CCDACADEC8E2C6E6C4EAC204
:10449000EEC080182326A4FA2324B4FA2322C4FAF7
:1044A0002320D4FA832644FA9DCE8326C4FA85CEEF
:1044B000832684FA8DCA032684FA9306700C63F46B
:1044C000C602832684FA8E060326C4FA636DD600DC
:1044D0000326C4FAC166FD163356D602832684FA33
:1044E000960663F4C600814781AC8326C4FA3687FA
:1044F00081479306803E3386D7028146B306D702B2
:1045000036969306803EB305D702B338D7022E887D
:10451000B3071601BE88832784FA3E8381431A8637
:104520009E864285C685EFC00FCA2A87AE872320A4
:10453000E4FC2322F4FCA1472317F4FCFDA223167C
:1045400004FC0357E4FC9307401FB307F7023E89BE
:104550008149032604FC832644FC3307C900BA853D
:10456000B3B52501B387D900B386F500B6873A8580
:10457000BE850357E4FC9307803EB307F702232C64
:10458000F4F8232E04F8032684F98326C4F9EFC037
:104590008FC32A87AE87231FE4FA8357E4FB638E19
:1045A00007160357E4FB8357E4FCB307F7023E8783
:1045B0009307803EB307F7023E8C814C832744FC6F
:1045C000668763ECE700832744FC6687639EE70405
:1045D000832704FC628763F9E7040357E4FB8357EE
:1045E000E4FCB307F7023E879307803EB307F70268
:1045F0003E8A814A032604FC832644FC3307CA40D2
:10460000BA85B335BA00B387DA40B386B740B68708
:104610001306803E81463A85BE85EFC0CFBA2A8711
:10462000AE872316E4FC49A00357E4FB8357E4FC60
:10463000B307F7023E8DFD87BE8D832744FC6E874E
:10464000636CF700832744FC6E87639FE70483272E
:1046500004FC6A87637AF7040357E4FB8357E4FC9E
:10466000B307F7023E879307803EB307F7023E8BFE
:10467000814B032704FC832744FC33066741B28542
:10468000B335B700B3867741B387B640BE8632876D
:10469000B6871306803E81463A85BE85EFC0AFB22D
:1046A0002A87AE872316E4FC8357C4FC9DCF0357AB
:1046B000C4FCE1679387076AB307F7022328F4F87D
:1046C000232A04F8032604FC832644FC032504F96A
:1046D000832544F9EFC02FAF2A87AE87BE86A1E2BB
:1046E000BE8681E68D4763ECE702832744FA0357D1
:1046F000E4FB2390E7000357E4FC93070002630701
:10470000F7008357E4FC93F7F70F11A081470327C5
:1047100004FA2300F700854705A0010011A001005D
:104720008357E4FC89072317F4FC0357E4FC930741
:104730000002E3F6E7E081473E85B650265416595D
:104740008659764AE64A564BC64B364CA64C164D11
:10475000864D65618280797106D622D40018232E99
:10476000A4FC232CB4FC8327C4FD23A207028327C7
:10477000C4FDDC5713E707088327C4FDD8D7832778
:1047800084FD9843832784FDDC439306B4FE13061F
:1047900084FEBE853A85CD31AA8793C7170093F76B
:1047A000F70F81C79307903E61A28327C4FDDC4BBE
:1047B00013F707FE8347B4FEFD8B5D8F8327C4FD8F
:1047C000D8CB835784FE13F7F70F8327C4FD98D304
:1047D000835784FEA183C207C18313F7F70F832792
:1047E000C4FDD8D38327C4FDDC5793F7F7F72326FE
:1047F000F4FE8327C4FE93F777FC2326F4FE832779
:1048000084FD83C7A70011476366F7041397270049
:10481000B96793874742BA979C4382878327C4FE30
:1048200093E787002326F4FE0DA88327C4FE93E7B1
:1048300087012326F4FE15A08327C4FE93E7870291
:104840002326F4FE19A88327C4FE93E787032326B3
:10485000F4FE21A08947E9A801008327C4FEE19B5B
:104860002326F4FE832784FD83C7870009476380DE
:10487000E7020947634BF7029DCB05476397E702C1
:104880008327C4FE93E747002326F4FE15A0832761
:1048900084FD83C7970099E3894759A88327C4FEFD
:1048A00093E747002326F4FE21A0894751A0010089
:1048B000832784FD83C7970013F737008327C4FE3F
:1048C0005D8F8327C4FDD8D78327C4FD194798D7A8
:1048D000832784FD83C7E7003E87832784FD83C742
:1048E000B700920793F707035D8F832784FD83C783
:1048F000C7009A0793F7F70F5D8F832784FD83C75F
:10490000D7008E07A18BD98F2326F4FE8327C4FD01
:104910000327C4FE98D78327C4FD0327C4FED8DF2E
:10492000832784FDBD07BE850325C4FD613481470F
:104930003E85B250225445618280797122D600189A
:10494000232EA4FCAE87A30DF4FC232604FE29A885
:104950000327C4FE85679387873863EEE7008327C4
:10496000C4FE85072326F4FE8327C4FDDC5B93F792
:104970000702F9DF11A001000327C4FE85679387B2
:10498000873863F4E7008D4739A00347B4FD8327D8
:10499000C4FD98D381473E85325445618280011120
:1049A00022CE00102326A4FEAE873287A305F4FE94
:1049B000BA872305F4FE0347B4FE914763ECE70092
:1049C0000347B4FE85476309F7000347B4FE8947F0
:1049D0006304F70089471DA88347A4FE89CF834756
:1049E000B4FE0327C4FE9E07BA9783A7470C93F72C
:1049F000F70F850721A88347B4FE0327C4FE9E074F
:104A0000BA9783A7070C93F7F70F85073E85724483
:104A100005618280797106D622D40018232EA4FC69
:104A2000232604FE8327C4FDA18393F7F70F2324D5
:104A3000F4FE8327C4FD93F7F70F2322F4FE032728
:104A400084FEB14763E5E70A832784FE13972700B6
:104A5000B96793878746BA979C438287032544FEAC
:104A6000E1222326A4FE79A0832544FE054589245E
:104A70002326A4FE41A0832544FE0945152C2326A8
:104A8000A4FE8DA8032544FE1D262326A4FE9DA07A
:104A9000B92E2326A4FEB9A8B7376E019387076005
:104AA0002326F4FE81A81D4541222326A4FE99A0B9
:104AB00011459D2A2326A4FE35A81545B522232697
:104AC000A4FE0DA819458D222326A4FE25A001458C
:104AD000A12A2326A4FE39A80945B9222326A4FE2B
:104AE00011A8032544FE31282326A4FE21A0232655
:104AF00004FE01008327C4FE3E85B2502254456166
:104B00008280797106D622D40018232EA4FC232695
:104B100004FE85472324F4FE0327C4FD9D4763EB71
:104B2000E70E8327C4FD13972700B9679387C7490A
:104B3000BA979C438287B7376E0193870760232615
:104B4000F4FEE1A88145370510F4EFF0CFF12326FC
:104B5000A4FEE1A001468545370510F489352324DC
:104B6000A4FE8545370510F4EFF0EFEF2A87832781
:104B700084FEB357F7022326F4FE45A0054685457B
:104B8000370510F4293D2324A4FE8545370510F48C
:104B9000EFF06FED2A87832784FEB357F7022326B1
:104BA000F4FEA5A801468945370510F4CD3B232422
:104BB000A4FE8945370510F4EFF0EFEA2A87832732
:104BC00084FEB357F7022326F4FE81A805468945E3
:104BD000370510F4E9332324A4FE8945370510F482
:104BE000EFF06FE82A87832784FEB357F702232666
:104BF000F4FE25A08D45370510F4EFF0CFE623260F
:104C0000A4FE21A89145370510F4EFF0CFE5232647
:104C1000A4FE21A0232604FE01008327C4FE3E85B6
:104C2000B250225445618280397106DE22DC800058
:104C30002326A4FC232604FE8327C4FC93F7F70F46
:104C40002324F4FE032784FE9307A00463EBE70408
:104C5000832784FE2322F4FE370700F4832744FED3
:104C6000938707608A07BA979C4393F7F70F8507E6
:104C70002320F4FE370700F4832744FE9387076060
:104C80008A07BA979C43A183BD8B232EF4FC03258E
:104C9000C4FD853D2A87832704FEB357F7022326E8
:104CA000F4FE8327C4FE3E85F25062542161828067
:104CB000397106DE22DC80002326A4FC2324B4FC08
:104CC000232604FEA30504FE9307B0042322F4FE6A
:104CD0000327C4FC8547631BF704832784FC232C2C
:104CE000F4FC032784FD8D4763EAE708370700F4E7
:104CF000832784FD938707708A07BA979C43A18313
:104D00009D8B232AF4FC032744FD8D4763E8E706C7
:104D1000B96713878743832744FD8A07BA979C4363
:104D20002322F4FE8547A305F4FE89A8832784FC8B
:104D30002320F4FE032704FE8D4763E1E7043707D1
:104D400000F4832704FE938747708A07BA979C4331
:104D5000A1839D8B232EF4FC0327C4FD8D4763EFB5
:104D6000E700B967138787448327C4FD8A07BA978A
:104D70009C432322F4FE8547A305F4FE8347B4FE3B
:104D800085C3032744FE9D476317F7001D45693D12
:104D90002326A4FE31A0032544FE79352326A4FE54
:104DA0008327C4FE3E85F25062542161828079716E
:104DB00006D622D40018232EA4FCB9671387874592
:104DC0008327C4FD8A07BA979C439C4B898B91E744
:104DD0001D45993D2326A4FE21A0A1672326F4FEAC
:104DE0008327C4FE3E85B250225445618280011162
:104DF00022CE0010B7870EF49C4B898B81EBB7371E
:104E00006E01938707602326F4FE21A0A167232665
:104E1000F4FE8327C4FE3E85724405618280797169
:104E200006D622D40018232EA4FC232CB4FC232A5B
:104E3000C4FC232604FE8327C4FDA18393F7F70F48
:104E40002324F4FE8327C4FD93F7F70F2322F4FEF7
:104E5000032784FEB14763EAE70A832784FE13979A
:104E60002700B9679387C74BBA979C4382878327EC
:104E700044FD99C7032744FD9307001063F8E7003A
:104E800095679387075F2326F4FE71A0832784FD2F
:104E9000BD8B2320F4FE832644FD032604FE8325D8
:104EA00044FE370500F4F12CBDA095679387375F6A
:104EB0002326F4FE8DA095679387A75F2326F4FE33
:104EC00099A895679387475F2326F4FEA9A0956765
:104ED0009387575F2326F4FE3DA895679387675F06
:104EE0002326F4FE0DA895679387775F2326F4FEAB
:104EF0001DA095679387875F2326F4FE29A89567F1
:104F00009387975F2326F4FE39A095679387175FF1
:104F10002326F4FE01008327C4FE3E85B2502254AE
:104F200045618280797106D622D40018232EA4FC14
:104F3000232CB4FC8327C4FDC1832326F4FE03275E
:104F4000C4FE9307D01563EDE700832784FD93F734
:104F5000F70F85460326C4FEBE85370500F4DD281D
:104F60000100B250225445618280011122CE00100E
:104F70002326A4FE2324B4FE032784FE854763E092
:104F8000E702B70600F48327C4FE05473317F7008E
:104F9000832784FE938707099207B697D8C3010039
:104FA000724405618280011106CE22CC0010F327E5
:104FB00040F12326F4FE8327C4FE2324F4FE0327B6
:104FC00084FE85476316F700B7070800890711A01C
:104FD00081472322F4FE032544FE2D3C2A8723A487
:104FE000E1200100F240624405618280011122CE7D
:104FF00000102326A4FE2324B4FE0327C4FE832727
:1050000084FE8A07BA979843B7070040F98FB337F1
:10501000F00093F7F70F3E8572440561828001111D
:1050200022CE00102326A4FE2324B4FE0327C4FEB0
:10503000832784FE938707608A07BA979843B70748
:105040000040F98FB337F00093F7F70F3E857244B5
:1050500005618280797106D622D40018232EA4FC23
:10506000AE87232AC4FC3687A30DF4FCBA87230D30
:10507000F4FC032744FD9307F00F63E4E70089473E
:10508000E5A8832744FD938707F095832326F4FE44
:10509000832744FDFD8B2324F4FE8347B4FD89C799
:1050A00005476384E706D9A00327C4FD8327C4FE10
:1050B000938707089207BA979843832784FE85460B
:1050C000B397F60093C7F7FF7D8F8347A4FD99C779
:1050D000832784FE8546B397F60011A081475D8F34
:1050E0008326C4FD8327C4FE938707089207B697DB
:1050F00098C38347A4FDADCF0100832544FD03255C
:10510000C4FDED35AA87F5FBA5A00327C4FD8327C1
:10511000C4FE938747089207BA979843832784FE73
:105120008546B397F60093C7F7FF7D8F8347A4FDAD
:1051300099C7832784FE8546B397F60011A081475F
:105140005D8F8326C4FD8327C4FE9387470892079B
:10515000B69798C38347A4FD91CF0100832544FDF2
:105160000325C4FD6135AA87F5FB29A0894729A03D
:10517000010011A0010081473E85B25022544561D3
:105180008280011106CE22CC00102326A4FE232407
:10519000B4FE2322C4FE2320D4FE032784FE9307FB
:1051A000200463F4E7008947ADA8032744FE9D4728
:1051B00063F4E7008947B5A00327C4FE832784FE74
:1051C000938707608A07BA979843FD777D8F832777
:1051D00044FE939687008567938707F0FD8E8327AB
:1051E00004FEFD1793F7F70FD58F5D8F8326C4FE5E
:1051F000832784FE938707608A07B69798C30100C8
:10520000832584FE0325C4FE193DAA87F5FB832769
:1052100084FE91C7032784FE89476313F700613337
:1052200081473E85F240624405618280011122CEB1
:1052300000102326A4FE2324B4FE0327C4FE89679E
:10524000BA979C4313F707FF832784FEBD8B5D8FBE
:105250008326C4FE8967B69798C30100724405612E
:105260008280011122CE00102326A4FE2324B4FE46
:105270008327C4FE9843B707F0FF7D8F832684FE03
:10528000B7071000FD17F58F5D8F8327C4FE98C305
:1052900001007244056182805D71A2C68008232EE0
:1052A000A4FAB9679387872583A8070003A8470056
:1052B0008847CC47904BD44B984FDC4F232614FDA6
:1052C000232804FD232AA4FC232CB4FC232EC4FC95
:1052D0002320D4FE2322E4FE2324F4FE8327C4FBF0
:1052E000984BB77707005D8F8327C4FB98CB832744
:1052F000C4FB9853B707C1F8938787F97D8FB70729
:105300001204938777065D8F8327C4FB98D3832786
:10531000C4FB9C4F13F7F7FE8327C4FB98CF83276A
:10532000C4FB9C4F13E707088327C4FB98CF832750
:10533000C4FB3707100098D78327C4FB9C4B1397F7
:10534000070141838567FD17F98F2317F4FE835703
:10535000E4FE138787DAE547B347F7022317F4FE25
:105360008327C4FBD853E1779387F70F7D8F83574B
:10537000E4FEC117A29783C7C7FD93968700A16774
:10538000938707F0F58F5D8F8327C4FBD8D3010087
:10539000364461618280011106CE22CC00100145A5
:1053A000EFF04FE72326A4FE0327C4FEB7376E01B4
:1053B00093870760631DF700B76704009385075064
:1053C000370510F4793D8945370500F48535814569
:1053D0000145893E8145B7070801138517009936B5
:1053E0008145B7070101138547002D3E8145B70769
:1053F0000201138557003D368145B7070301138528
:1054000067000D368145B707000113857700193E07
:105410008145B70712011385176029368145B70703
:10542000110113854750FD3C8145B7070C011385D9
:105430009700CD3C8145B7070D011385A700DD34EA
:105440008145B7070A0113853760E93C8145B707F5
:105450000B0113854760F9348145B71706011385A1
:105460000790C9348145B7170701138507A05D3C34
:105470008145B7071301138517506D348145B70770
:105480004B0113856750793C8145B7074C01138563
:105490007750493C8145B7074D01138587505934F2
:1054A0008145B7074E0113859750AD3C8145B7073D
:1054B0004A011385C750BD348145B7073E011385A6
:1054C000F7028D34814501454D348545B707080005
:1054D00013852700813C8545B707090113853700EF
:1054E00091348545054551349305B04F37450CF44B
:1054F000EFE0BF8B37450CF44533B737A330138645
:1055000007C08145370510F4EFE07FA8AA8791CB4B
:10551000B737A330938507C0B96713858727792CE0
:1055200001A0054685450145EFF07F8F054685457D
:10553000B707080013852700EFF07F8EAD340946CA
:105540008D45B707000113857700EFF05F8D0546A5
:105550008145B707080113851700EFF05F8C0546FA
:105560008145B707090113853700EFF05F8B010014
:10557000F240624405618280411106C622C40008DF
:10558000B9220100B240224441018280411106C685
:1055900022C400080935CD370100B2402244410140
:1055A0008280397106DE22DC80002326A4FC2324BD
:1055B000B4FC2322C4FC2320D4FC232E04FC23208F
:1055C00004FE232204FE232404FE232604FEB70740
:1055D00004F4094723A8E70CB70704F4094723ACF0
:1055E000E70C8145B7072E011385F701EFF09F9374
:1055F0009307C4FDBE85370507F0EFE09FE08327E2
:10560000C4FC2320F4FE832744FC93F7F70F230206
:10561000F4FE832784FC93F7F70FA302F4FE83279D
:1056200004FC93F7F70F2303F4FE230504FEB707EA
:105630002E011385F701EFF0EFBDAA87232EF4FCAE
:105640009307C4FDBE85370507F0EFF0CF9001004A
:10565000F250625421618280797106D622D40018FA
:10566000232EA4FCAE87231DF4FC8327C4FD232432
:10567000F4FE231704FE15A08357E4FE032784FEDF
:10568000BA9783C70700BE85370507F0EFF0EFAA8A
:105690008357E4FE85072317F4FE0357E4FE835780
:1056A000A4FDE36BF7FC8357E4FE3E85B250225421
:1056B00045618280011122CE00102326A4FEAE8710
:1056C0002315F4FE81473E857244056182804111B5
:1056D00006C622C40008B707080113850700EFE0DB
:1056E0006FD60100B240224441018280797106D612
:1056F00022D40018B1472326F4FEB96787A7072EE6
:105700002724F4FE6135014781460D46F1679385F4
:105710000720B9671385472AEFE02FDEB9671385A5
:10572000C72A89228325C4FEB9671385C72B792030
:10573000872784FED3870742273CF4FC032684FD99
:105740008326C4FDB9671385C72C8D2881473E8504
:10575000B25022544561828003A7C11A4111B68715
:10576000328806C68328C700AA862E873E86630C29
:105770000800B9679387074FB9659385055046853B
:105780000928EF20305B39689307C84F1308C84FCA
:10579000E5B72A8E397103A5C11A1303810232D4E9
:1057A00036D62E869A86F28506CE3AD83EDA42DC86
:1057B00046DE1AC6C922F2402161828003A3C11AC3
:1057C000397132D436D62ED23AD83EDA42DC46DEB1
:1057D0008325830054102A861A8506CE36C6EF002C
:1057E0009076F24021618280397122DC2A842E85F4
:1057F00026DA06DEAE849D28B967938707533ED428
:1058000085473ED6185C1C10930615003ECA894792
:1058100026D02AD236CE3ECC0C441DCF8397C5006D
:1058200013972701634B0700F8518966D58FF976E6
:10583000FD16758F2396F500F8D150082285EF30BC
:10584000603EF25062543335A0003305A040D2547C
:105850001365A5002161828022852EC6EF20507E2F
:10586000B2456DBFAA8503A5C11ABDBF93773500A8
:105870002A879DEFB7867F7F9386F6F7FD55104305
:105880001107B377D600B697D18FD58FE389B7FECE
:105890008346C7FFB307A7408DCA8346D7FF9DC283
:1058A0000345E7FF3335A0003E9579158280F9D294
:1058B00083470700050793763700F5FB098F13052B
:1058C000F7FF82801385D7FF82801385C7FF828010
:1058D000F851797189675AC806D622D426D24AD09F
:1058E0004ECE52CC56CA5EC662C4F98F328BB5CB4F
:1058F0001C46832B06002E89AA89FD5AADC303AC32
:105900004B0003A40B00135A2C0063020A048144C9
:1059100021A01104630B9A020C404A864E85EF20A9
:10592000307F8504E31755FF7D55B2502254232460
:105930000B0023220B0092540259F249624AD24AC8
:10594000424BB24B224C4561828083278B00137CF3
:10595000CCFFB38787412324FB00A10BCDF3014586
:10596000E9B7EF30202CD1B7184611C395B72322E1
:105970000600014582802971232631132322511309
:10598000232061132326B111232E1112232C8112FF
:10599000232A91122328211323244113232E71112A
:1059A000232C8111232A91112328A1112A8BAE893E
:1059B000B28DB68A01C51C5D638107500397C9008B
:1059C000896693170701C18333F6D70005E203A662
:1059D0004906B367D700C2077977C1877D17718FF2
:1059E0002396F900C20723A2E906C18313F78700B3
:1059F0006309072A03A709016305072AE98B2947D9
:105A0000638DE72A3967E40813074756396C39690B
:105A1000A6C882CC82CAA68702C802D202D402D605
:105A200002C43ACA130C0C6D1309096E03C70D00AA
:105A30006304071A6E84930650026302D732034749
:105A4000140005047DFB330AB4416307B419E6462C
:105A5000564723A0B701D296050723A24701B6CC2B
:105A6000BACA1D46A107635BE600E385060A9008F3
:105A7000CE855A85B13D63140516A687A246034715
:105A80000400D29636C46309071403461400930D2C
:105A90001400A30501047D570144014D130AA0051C
:105AA000A54B930CA002850D930606FE636BDA02EC
:105AB000D2458A06AE96944282860144930606FD3C
:105AC00003C60D0093152400A29586053384B60005
:105AD000930606FD850DE3F5DBFE930606FEE379EE
:105AE000DAFC630B060E230EC108A3050104054A68
:105AF000854B930CC1090147137F2D0063030F00F1
:105B0000090AD645937E4D086646138515002A83FB
:105B100063960E00330E44416344C0750345B104DF
:105B200019CD9305B10405068CC38545CCC3B2CC11
:105B30009ACA9D4563CB656C9A85A1070503630CE2
:105B40000F02EC0009068CC38945CCC3B2CC9ACABB
:105B50009D4563D06570E30206009008CE855A85A6
:105B60003ACC76C6B53325EDD64566466247B24E89
:105B7000A6871383150013050008638FAE543307FF
:105B80007741634CE05E5E9623A0970123A27701E4
:105B9000B2CC9ACA1D47635B67526309061C900822
:105BA000CE855A85353305ED6646A68793784D0038
:105BB00063860800B30B44416344701D6353440182
:105BC0005284A247A2973EC46315066203C70D0024
:105BD00082CAA687E31007E6E647E397072883D73C
:105BE000C90093F70704E395072A8320C113032410
:105BF0008113224583244113032901138329C112F0
:105C0000032A8112832A4112032B0112832BC11113
:105C1000032C8111832C4111032D0111832DC110FF
:105C20003161828003A40A00910A634E042E03C6E8
:105C30000D0095BD03C60D00136D0D02ADB5136DBE
:105C40000D0193760D02638C061C9D0A93FA8AFF60
:105C500083A64A0003AA0A00A10AB68B63C2061EE5
:105C6000FD566A8E6308D700B3667A01137EFDF78E
