:020000040800F2
:1000000000C000200D04000859040008590400082D
:1000100059040008590400085904000800000000B1
:10002000000000000000000000000000590400086B
:100030005904000800000000590400085904000891
:10004000590400085904000859040008590400081C
:10005000590400085904000859040008590400080C
:1000600059040008590400085904000859040008FC
:1000700059040008590400085904000859040008EC
:1000800059040008590400085904000859040008DC
:1000900059040008590400085904000859040008CC
:1000A00059040008590400085904000859040008BC
:1000B00059040008590400085904000859040008AC
:1000C000590400085904000859040008590400089C
:1000D000590400085904000859040008590400088C
:1000E000590400085904000859040008590400087C
:1000F000590400085904000859040008590400086C
:10010000590400085904000859040008590400085B
:10011000590400085904000859040008590400084B
:10012000590400085904000859040008590400083B
:040130005904000866
:1001340080EA010C1CF0030F37D110F0030C20F0FF
:10014400030021F0030150F8042B08BF51F8043BCD
:100154000ED08CF0030C6FF07F434FEACC0C23FAE3
:100164000CFC51F8043B42EA0C0243EA0C0300BFC6
:10017400A2F1013C9A4201BF2CEA020C1CF0803F20
:1001840050F8042B51F8043BF2D04FEA02604FEAD6
:100194001222012828BFB0EB036F08BF1B0AF4D05A
:1001A40003F0FF03000EC01A704710F0030F0AD0CB
:1001B40010F8012B11F8013B012A28BF9A42F4D010
:1001C400A2EB030070474DF8045D50F8042B01F0D6
:1001D400030521F0030151F8043B022D26D04DD82C
:1001E40022F07F45B5EB132FA2F1013C2CEA020C5F
:1001F4000DD11CF0803C08BF51F8043B0AD185EABC
:100204000205B5EB036F0CD150F8042BE8E74FEA75
:1002140013235BE03CF07F4C54D10B784FEA12651A
:1002240054E04FEA126503F0FF034FE04FEA024542
:10023400A2F1013C4FEA15452CEA020CB5EB134F31
:1002440018D11CF0803C08BF51F8043B07D185EA63
:100254000205B5EB034F09D150F8042BE6E75FEA3A
:100264000C4C2FD10B884FEA12452FE04FEA034381
:100274004FEA12454FEA134328E000BF02F0FF059E
:10028400B5EB136FA2F1013C2CEA020C0DD11CF06A
:10029400803C08BF51F8043B0AD185EA0205B5EB5E
:1002A400032F0AD150F8042BE8E74FEA13630DE05B
:1002B40012F0FF0F06D051F8043B4FEA122523F049
:1002C4007F4303E04FF0000020BC704705F0FF02BD
:1002D40003F0FF00012828BF904204BF2D0A1B0A27
:1002E400F4D0A2EB000020BC704700BF80B584B0FE
:1002F40000AF78600023FB6019E0114AFB6852F8F4
:100304002330002B10D00E4AFB6852F823301B68B0
:1003140019467868FFF70CFF0346002B04D1084AFE
:10032400FB6852F8233006E0FB680133FB60FB688E
:10033400072BE2DD002318461037BD4680BD00BF01
:100344003800002080B483B000AF78600B4B1B787A
:10035400072B0ED8094B1B781946094A7B6842F8CB
:100364002130064B1B785A1CD1B2044A1170034A3F
:10037400137000BF0C37BD4680BC70475800002086
:100384003800002080B582B000AF78607B68002B15
:1003940003D07B685B68984700E000BF0837BD4620
:1003A40080BD80B584B000AFF860B9601346FB80AF
:1003B400FB68002B06D0FB689B68FA881146B86876
:1003C400984700E000BF1037BD4680BD80B582B0BD
:1003D40000AF78607B68002B03D07B685B6998472B
:1003E40000E000BF0837BD4680BD80B582B000AFD5
:1003F40078607B68002B03D07B689B69984700E09A
:1004040000BF0837BD4680BDDFF830D00C480D4929
:100414000D4A002302E0D458C4500433C4188C425B
:10042400F9D30A4A0A4C002301E013600432A242C1
:10043400FBD300F011F800F097FCFEE700C00020A9
:100444000000002038000020D40D000838000020EF
:1004540068000020FEE7000080B500AF154B1B6864
:10046400144A43F001031360124B5A681149124BAA
:1004740013404B600F4B1B680E4A23F0847323F424
:10048400803313600B4B1B680A4A23F480231360E8
:10049400084B5B68074A23F4FE035360054B4FF493
:1004A4001F029A6000F00CF8044B4FF000629A604F
:1004B40000BF80BD001002400000FFF800ED00E026
:1004C40080B500AF00F002F800BF80BD80B483B0F7
:1004D40000AF00237B6000233B603A4B1B68394A22
:1004E40043F480331360374B1B6803F400333B60E1
:1004F4007B6801337B603B68002B03D17B68B3F5D9
:10050400A06FF0D12F4B1B6803F40033002B02D0F3
:1005140001233B6001E000233B603B68012B4BD18E
:10052400294B1B68284A43F010031360264B1B68B1
:10053400254A23F007031360234B1B68224A43F028
:10054400020313601F4B1F4A5B6853601D4B1D4A17
:100554005B6853601B4B5B681A4A43F480635360C7
:10056400184B5B68174A23F47C135360154B5B6884
:10057400144A43F4E8135360124B1B68114A43F0C6
:100584008073136000BF0F4B1B6803F00073002BD4
:10059400F9D00C4B5B680B4A23F003035360094BFF
:1005A4005B68084A43F00203536000BF054B5B6875
:1005B40003F00C03082BF9D100BF0C37BD4680BCF7
:1005C400704700BF001002400020024080B485B094
:1005D40000AF786039600023FB817B681B88FB8156
:1005E400FB8903F44153FB813B681A883B685B88B1
:1005F40013439AB23B689B8813439AB23B68DB88E7
:1006040013439AB23B681B8913439AB23B685B89D4
:1006140013439AB23B689B8913439AB23B68DB89C4
:1006240013439AB2FB891343FB817B68FA891A80CE
:100634007B689B8B9BB223F400639AB27B689A839A
:100644003B681A8A7B681A8200BF1437BD4680BC97
:10065400704780B483B000AF78600B46FB70FB78C2
:10066400002B08D07B681B889BB243F040039AB2EE
:100674007B681A8007E07B681B889BB223F04003E9
:100684009AB27B681A8000BF0C37BD4680BC7047A5
:1006940080B483B000AF78600B467B807B687A8837
:1006A4009A8100BF0C37BD4680BC704780B483B0CC
:1006B40000AF78607B689B899BB218460C37BD46B7
:1006C40080BC704780B485B000AF78600B467B80F7
:1006D4000023FB737B681B899AB27B8813409BB20F
:1006E400002B02D00123FB7301E00023FB73FB7B8F
:1006F40018461437BD4680BC7047000080B483B0F0
:1007040000AF78600B46FB70FB78002B06D0094BDA
:100714009A6908497B6813438B6106E0054B9A6923
:100724007B68DB43034913408B6100BF0C37BD4634
:1007340080BC70470010024080B483B000AF786082
:100744000B46FB70FB78002B06D0094BDA6908498D
:100754007B681343CB6106E0054BDA697B68DB43B6
:1007640003491340CB6100BF0C37BD4680BC7047C2
:100774000010024080B489B000AF78603960002373
:10078400FB6100233B610023BB610023FB6000236A
:100794007B610023BB603B68DB7803F00F03FB61E4
:1007A4003B68DB7803F01003002B05D03B689B7893
:1007B4001A46FB691343FB613B681B88DBB2002BC1
:1007C40044D07B681B687B610023BB6138E0012255
:1007D400BB6902FA03F3FB603B681B881A46FB689B
:1007E40013403B613A69FB689A4226D1BB699B007E
:1007F400FB600F22FB6802FA03F3BB60BB68DB43B8
:100804007A6913407B61FA69FB6802FA03F37A6937
:1008140013437B613B68DB78282B05D10122BB693C
:100824009A407B685A6108E03B68DB78482B04D126
:100834000122BB699A407B681A61BB690133BB61C1
:10084400BB69072BC3D97B687A691A603B681B882C
:10085400FF2B46D97B685B687B610023BB613AE070
:10086400BB690833012202FA03F3FB603B681B886F
:100874001A46FB6813403B613A69FB689A4227D1E8
:10088400BB699B00FB600F22FB6802FA03F3BB60A9
:10089400BB68DB437A6913407B61FA69FB6802FA3F
:1008A40003F37A6913437B613B68DB78282B05D11A
:1008B400BB69083301229A407B685A613B68DB7844
:1008C400482B05D1BB69083301229A407B681A6121
:1008D400BB690133BB61BB69072BC1D97B687A69EA
:1008E4005A6000BF2437BD4680BC704780B483B0D3
:1008F40000AF78600B467B807A887B681A6100BF02
:100904000C37BD4680BC704780B483B000AF7860BC
:100914000B467B807A887B685A6100BF0C37BD46E2
:1009240080BC704780B500AF00F004F900F012FA03
:1009340000BF80BD80B586B000AF01210420FFF761
:10094400DDFE01214FF48050FFF7D8FEE023BB8287
:100954001823FB750323BB7507F1140319461848C4
:10096400FFF708FF1023BB821023FB750323BB751D
:1009740007F1140319461248FFF7FCFE0023BB815C
:1009840001233B810223FB8007233B820823BB8096
:1009940000233B800023FB814FF482737B804FF460
:1009A40000737B813B4619460648FFF70FFE012181
:1009B4000448FFF74EFE00BF1837BD4680BD00BF98
:1009C400000801400030014080B584B000AF786079
:1009D4000B467B807B68FB601BE000BF0221124852
:1009E400FFF770FE0346002BF8D0FB685A1CFA6030
:1009F4001B789BB219460C48FFF74AFE00BF012141
:100A04000948FFF75FFE0346002BF8D00648FFF7BE
:100A14004DFE7B885A1E7A80002BDED100BF00BFBA
:100A24001037BD4680BD00BF0030014080B584B0A2
:100A340000AF78600B467B807B68FB601DE000BFE5
:100A440002211348FFF73EFE0346002BF8D0FF2196
:100A54000F48FFF71DFE00BF01210D48FFF732FECE
:100A64000346002BF8D00A48FFF720FE0346194638
:100A7400FB685A1CFA60CAB21A707B885A1E7A80C4
:100A8400002BDCD100BF00BF1037BD4680BD00BFC6
:100A94000030014080B586B000AFF860B9601346FD
:100AA400FB80FB687B61BB683B6122E000BF0221E5
:100AB4001548FFF707FE0346002BF8D07B695A1C44
:100AC4007A611B789BB219460F48FFF7E1FD00BF1E
:100AD40001210D48FFF7F6FD0346002BF8D00A4824
:100AE400FFF7E4FD034619463B695A1C3A61CAB252
:100AF4001A70FB885A1EFA80002BD7D100BF00BFA2
:100B04001837BD4680BD00BF0030014080B500AF3E
:100B140010210248FFF7F8FE00BF80BD0008014025
:100B240080B500AF10210248FFF7E0FE00BF80BD92
:100B34000008014080B500AF0248FFF703FC00BF86
:100B440080BD00BF0000002080B586B000AF012149
:100B54000820FFF7D3FD01214FF48040FFF7ECFD9F
:100B64004FF46043BB821823FB750323BB7507F165
:100B7400140319461848FFF7FDFD4FF48053BB8258
:100B84001023FB750323BB7507F1140319461248A0
:100B9400FFF7F0FD3823BB8101233B810223FB8057
:100BA40007233B820823BB8000233B800023FB8177
:100BB4004FF482737B804FF400737B813B4619466C
:100BC4000648FFF703FD01210448FFF742FD00BF7B
:100BD4001837BD4680BD00BF000C014000380040FE
:100BE40080B584B000AF78600B467B807B68FB6087
:100BF4001BE000BF02211248FFF764FD0346002BEF
:100C0400F8D0FB685A1CFA601B789BB219460C4852
:100C1400FFF73EFD00BF01210948FFF753FD0346DE
:100C2400002BF8D00648FFF741FD7B885A1E7A80D6
:100C3400002BDED100BF00BF1037BD4680BD00BF12
:100C44000038004080B584B000AF78600B467B80EC
:100C54007B68FB601DE000BF02211348FFF732FDF3
:100C64000346002BF8D0FF210F48FFF711FD00BF0A
:100C740001210D48FFF726FD0346002BF8D00A4852
:100C8400FFF714FD03461946FB685A1CFA60CAB202
:100C94001A707B885A1E7A80002BDCD100BF00BFFB
:100CA4001037BD4680BD00BF0038004080B586B017
:100CB40000AFF860B9601346FB80FB687B61BB68DA
:100CC4003B6122E000BF02211548FFF7FBFC03460D
:100CD400002BF8D07B695A1C7A611B789BB21946A9
:100CE4000F48FFF7D5FC00BF01210D48FFF7EAFCD0
:100CF4000346002BF8D00A48FFF7D8FC03461946F0
:100D04003B695A1C3A61CAB21A70FB885A1EFA80AF
:100D1400002BD7D100BF00BF1837BD4680BD00BF30
:100D24000038004080B500AF4FF480510248FFF70F
:100D3400EBFD00BF80BD00BF000C014080B500AFDB
:100D44004FF480510248FFF7D1FD00BF80BD00BFC2
:100D5400000C014080B500AF0248FFF7F3FA00BF72
:100D640080BD00BF1C00002080B500AFFFF7DAFD96
:100D74000E48FFF7BBFA03460D4A13600C4B1B6881
:100D84001846FFF7FFFA0A4B1B681846FFF71EFBCD
:100D9400074B1B68022207491846FFF702FB044B66
:100DA4001B681846FFF721FB00BF80BDCC0D00086F
:080DB4005C000020600000203B
:100DBC0053504931000000005350493200000000EC
:080DCC00535049320000000001
:100DD400BC0D000839090008CD090008310A0008D3
:100DE400990A0008110B0008250B0008C40D00081F
:100DF4004D0B0008E50B0008490C0008B10C000875
:080E0400290D0008410D000852
:040000050800040DDE
:00000001FF
