:10000000971108019381018017020801130282FFF2
:10001000731000309962F3A2023073103000B712EF
:1000200000F49382028003A302001363030823A059
:100030006200978208009382E2FC1681EF00300094
:10004000EF00007CEF003003EF007015EF00104070
:10005000EF00900593020060739052307360017D51
:08006000EF00903C01A001A09B
:1002000001A0010001A000002971232E1112232C4E
:100210005112232A611223287112232681122324CA
:10022000A1122322B1122320C112232ED110232C7C
:10023000E110232AF1102328011123261111232470
:10024000C1112322D1112320E111FEDF82B586B135
:100250008AAD8EA992A596A11ABD1EB92AB52EB156
:1002600032AD36A93AA53EA1C2BCC6B8F2B4F6B0CA
:10027000FAACFEA88002F32720342324F4F083276D
:1002800084F02322F4F0F32710342320F4F08327A2
:1002900004F02326F4F0F3270030232EF4EE832716
:1002A000C4EF232CF4EEF3273000232AF4EE832747
:1002B00044EF2328F4EEF327B07C2326F4EE8327C3
:1002C000C4EE2324F4EEF327D07C2322F4EE83271C
:1002D00044EE2320F4EE832744F063DD0700032778
:1002E00044F08567FD177D8F9D476315F700EF008C
:1002F000102CF9A0832744F063D10708032744F0AA
:100300008567FD177D8F8D476319F706B70740E6B0
:100310002326F4EC232404EC832784EC1397C700F2
:100320008327C4EC3E97B70720009107BA97232292
:10033000F4EC832744EC9C430100EF003028B7071E
:1003400040E6232EF4EC232C04EC8547232AF4EC1E
:10035000832784ED1397C7008327C4ED3E97B70723
:1003600020009107BA972328F4EC832704ED032794
:1003700044ED98C301000100A1A0832744F063C9A4
:100380000702032744F08567FD177D8FAD47631192
:10039000F70285679387A7DC3687B2862E86AA8503
:1003A000468582978327C4F091072326F4F009A895
:1003B0008325C4F0032544F0EF0050232326A4F046
:1003C000832784EF739007308327C4F0739017342A
:1003D000832704EF73903700832704EE7390D77C54
:1003E000832784EE7390B77C01008320C11383229E
:1003F000811303234113832301130324C112032513
:10040000811283254112032601128326C11103277D
:10041000811183274111032801118328C110032E64
:100420008110832E4110032F0110FE5F2E308E307D
:100430006E21CE212E228E226A33CA332A358A3586
:100440006A26CA262A278A276638C638263E863E66
:10045000662FC62F316173002030000000000000BD
:10046000000000000000000000000000000000008C
:10047000000000000000000000000000000000007C
:10048000000000000000000000000000000000006C
:10049000000000000000000000000000000000005C
:1004A000000000000000000000000000000000004C
:1004B000000000000000000000000000000000003C
:1004C000000000000000000000000000000000002C
:1004D000000000000000000000000000000000001C
:1004E000000000000000000000000000000000000C
:1004F00000000000000000000000000000000000FC
:1005000000000000000000000000000000000000EB
:1005100000000000000000000000000000000000DB
:1005200000000000000000000000000000000000CB
:1005300000000000000000000000000000000000BB
:1005400000000000000000000000000000000000AB
:10055000000000000000000000000000000000009B
:10056000000000000000000000000000000000008B
:10057000000000000000000000000000000000007B
:10058000000000000000000000000000000000006B
:10059000000000000000000000000000000000005B
:1005A000000000000000000000000000000000004B
:1005B000000000000000000000000000000000003B
:1005C000000000000000000000000000000000002B
:1005D000000000000000000000000000000000001B
:1005E000000000000000000000000000000000000B
:1005F00000000000000000000000000000000000FB
:1006000008020000040200000402000004020000CE
:1006100004020000040200000402000004020000C2
:1006200004020000040200000402000004020000B2
:1006300004020000040200000402000004020000A2
:100640000402000004020000040200000402000092
:100650000402000004020000040200000402000082
:100660000402000004020000040200000402000072
:100670000402000004020000040200000402000062
:100680000402000004020000040200000402000052
:100690000402000004020000040200000402000042
:1006A0000402000004020000040200000402000032
:1006B0000402000004020000040200000402000022
:1006C0000402000004020000040200000402000012
:1006D0000402000004020000040200000402000002
:1006E00004020000040200000402000004020000F2
:1006F00004020000040200000402000004020000E2
:1007000004020000040200000402000004020000D1
:1007100004020000040200000402000004020000C1
:1007200004020000040200000402000004020000B1
:1007300004020000040200000402000004020000A1
:100740000402000004020000040200000402000091
:100750000402000004020000040200000402000081
:100760000402000004020000040200000402000071
:100770000402000004020000040200000402000061
:100780000402000004020000040200000402000051
:100790000402000004020000040200000402000041
:1007A0000402000004020000040200000402000031
:1007B0000402000004020000040200000402000021
:1007C0000402000004020000040200000402000011
:1007D0000402000004020000040200000402000001
:1007E00004020000040200000402000004020000F1
:1007F00004020000040200000402000004020000E1
:10080000011106CE22CC0010F327A07C2326F4FE93
:100810008327C4FE0100898BB337F00093F7F70FED
:1008200093C7170093F7F70F91C7AD2093072040A8
:1008300073A0A77C0100F24062440561828001112F
:1008400022CE0010F327A07C2326F4FE8327C4FECB
:100850000100858BB337F00093F7F70F93C71700AC
:1008600093F7F70F89C79307103073A0A77C010097
:10087000724405618280011122CE0010DD47A3077A
:10088000F4FE8347F4FE7390C77C010001007244BC
:1008900005618280411122C60008996773A0A77C78
:1008A00001003244410182805D71A2C680088567E3
:1008B0009387078073B047300100232204FE232072
:1008C00004FEB70700E4232EF4FC832744FE232C08
:1008D000F4FC832704FE232AF4FC832784FD13976A
:1008E000C7008327C4FD3E97B7072000BA97232887
:1008F000F4FC832704FD032744FD98C30100010095
:10090000232604FEA1A8232604FC8327C4FE232457
:10091000F4FCB70700E42322F4FC8327C4FC232063
:10092000F4FC832784FC232EF4FA832704FC13971A
:10093000C700832744FC3E97B70720009107BA976A
:10094000232CF4FA832784FB0327C4FB98C30100FC
:1009500001008327C4FE85072326F4FE0327C4FE77
:100960009307F007E3F1E7FA232404FE39A883276D
:1009700084FE13972700B72700E4BA9723A0070047
:10098000832784FE85072324F4FE032784FE8D47F6
:10099000E3FFE7FC01000100364461618280011140
:1009A00022CE0010B707080113870700B707080118
:1009B00093870700B307F7402324F4FE232604FEA1
:1009C00039A80327C4FEB707080193870700BA9721
:1009D000238007008327C4FE85072326F4FE032710
:1009E000C4FE832784FEE36EF7FCB707100113876C
:1009F0000700B707100193870700B307F7402324C8
:100A0000F4FE232604FE39A80327C4FEB70710010D
:100A100093870700BA97238007008327C4FE8507C2
:100A20002326F4FE0327C4FE832784FEE36EF7FC2F
:100A3000B707080013870700B70708009387070068
:100A4000B307F7402324F4FE232604FE39A8032726
:100A5000C4FEB707080093870700BA9723800700F2
:100A60008327C4FE85072326F4FE0327C4FE8327BD
:100A700084FEE36EF7FCB707080113870700B7078A
:100A8000080193870700B307F7402324F4FE2326C9
:100A900004FE3DA00327C4FE8567938707E93E97C0
:100AA0008326C4FEB707080193870700B69703475C
:100AB00007002380E7008327C4FE85072326F4FE72
:100AC0000327C4FE832784FEE366F7FC856713874C
:100AD00007E98567938707E9B307F7402324F4FE06
:100AE000232604FE35A00327C4FE8567938707E904
:100AF0003E978326C4FE8567938707E9B697034729
:100B000007002380E7008327C4FE85072326F4FE21
:100B10000327C4FE832784FEE367F7FCB7070801B9
:100B200013870700B707080193870700B307F7404B
:100B30002324F4FE232604FE3DA00327C4FE85677C
:100B4000938707E93E978326C4FEB707080193877A
:100B50000700B697034707002380E7008327C4FEFA
:100B600085072326F4FE0327C4FE832784FEE3665D
:100B7000F7FCB707100113870700B7071001938729
:100B80000700B307F7402324F4FE232604FE3DA00C
:100B90000327C4FE8567938707E93E978326C4FE33
:100BA000B707100193870700B69703470700238014
:100BB000E7008327C4FE85072326F4FE0327C4FE2F
:100BC000832784FEE366F7FCB70708001387070056
:100BD000B707080093870700B307F7402324F4FE04
:100BE000232604FE3DA00327C4FE8567938707E9FB
:100BF0003E978326C4FEB707080093870700B69781
:100C0000034707002380E7008327C4FE85072326C8
:100C1000F4FE0327C4FE832784FEE366F7FC01008D
:100C20000100724405618280411106C622C4000899
:100C30002922D52A0100B24022444101828041117B
:100C400022C600080100324441018280011106CE13
:100C500022CC0010B707080113870700B707080167
:100C600093870700B307F74089872324F4FE2326E0
:100C700004FE05A0B7070801138707008327C4FEF9
:100C80008A07BA979C4382978327C4FE8507232649
:100C9000F4FE0327C4FE832784FEE36DF7FCB70749
:100CA000080113870700B707080193870700B307F8
:100CB000F74089872324F4FE232604FE05A0B70706
:100CC0000801138707008327C4FE8A07BA979C434D
:100CD00082978327C4FE85072326F4FE0327C4FEDC
:100CE000832784FEE36DF7FC01000100F2406244BB
:100CF00005618280011122CE0010232604FE832785
:100D0000C4FE93E727002326F4FE8327C4FE93E75F
:100D100017002326F4FEB70700E42324F4FE8327FC
:100D2000C4FE2322F4FE832784FE032744FE98C3D7
:100D300001000100724405618280797106D622D4D7
:100D40000018A1472320F4FE232E04FC832704FE71
:100D5000F3B70730232EF4FC8327C4FD0100856719
:100D60009387078073B047300100693785679387A1
:100D7000078073A047300100A1472322F4FE832798
:100D800044FE73A007300100F32760302326F4FEF1
:100D90008327C4FE2324F4FE832784FE93E71700F1
:100DA000739067300100B250225445618280411136
:100DB00022C600080100324441018280411122C64E
:100DC00000080100324441018280797122D6001866
:100DD0002326A4FE2324B4FE2322C4FE2320D4FE13
:100DE000232EE4FC0100325445618280011122CEA1
:100DF00000102326A4FE2324B4FE0327C4FEBD470F
:100E000063ECE7008327C4FE139727008567938769
:100E100007E5BA979C4382870100832784FE3E85BD
:100E2000724405618280011122CE0010BD47232645
:100E3000F4FEB5472324F4FE0327C4FE832784FE73
:100E4000BA972322F4FE01007244056182800000FB
:100E5000180E0000180E0000180E0000180E0000FA
:100E6000180E0000180E0000180E0000180E0000EA
:100E7000180E0000180E0000180E0000180E0000DA
:100E8000180E0000180E0000180E0000180E0000CA
:00000001FF
