:10000000971108019381018017020801130282FFF2
:1000100073100030B71200F49382028003A3020031
:100020001363030823A0620097820800938282FD75
:100030001681EF00D000EF00A07CEF00D003EF00AE
:100040001016EF00B040EF0030069302006073908E
:1000500052307360017DEF00303D01A001A000002F
:1002000001A0010001A000002571232E1118232C4C
:100210005118232A611823287118232681182324B2
:10022000A1182322B1182320C118232ED116232C64
:10023000E116232AF1162328011723261117232458
:10024000C1172322D1172320E117232EF11582A6EF
:1002500086A20ABE0EBA12B616B21AAE1EAA22A6FE
:1002600026A2AABDAEB9B2B5B6B1BAADBEA9C2A5F5
:10027000C6A14ABD4EB952B556B15AAD5EA962A5E6
:1002800066A1EABCEEB8F2B4F6B0FAACFEA8001370
:10029000F32720342324F4EA832784EA2322F4EA90
:1002A000F32710342320F4EA832704EA2326F4EA10
:1002B000F3270030232EF4E88327C4E9232CF4E845
:1002C000F3273000232AF4E8832744E92328F4E8BD
:1002D000F327B07C2326F4E88327C4E82324F4E83A
:1002E000F327D07C2322F4E8832744E82320F4E892
:1002F000832744EA63DD0700032744EA8567FD1787
:100300007D8F9D476315F700EF00702AF9A08327C2
:1003100044EA63D10708032744EA8567FD177D8F08
:100320008D476319F706B70740E62326F4E6232432
:1003300004E6832784E61397C7008327C4E63E9725
:10034000B70720009107BA972322F4E6832744E6F3
:100350009C430100EF009026B70740E6232EF4E609
:10036000232C04E68547232AF4E6832784E71397A2
:10037000C7008327C4E73E97B70720009107BA97C5
:100380002328F4E6832704E7032744E798C3010002
:100390000100A1A0832744EA63C90702032744EAB6
:1003A0008567FD177D8FAD476311F70285679387DA
:1003B000A7DC3687B2862E86AA8546858297832754
:1003C000C4EA91072326F4EA09A88325C4EA032591
:1003D00044EAEF00B0212326A4EA832784E973903E
:1003E00007308327C4EA73901734832704E9739096
:1003F0003700832704E87390D77C832784E87390C1
:10040000B77C01008320C11983228119032341197C
:10041000832301190324C11803258118832541185A
:10042000032601188326C117032781178327411745
:10043000032801178328C116032E8116832E411627
:10044000032F0116832FC115362096207231D23129
:10045000323292327223D223322492246E35CE3538
:100460002E368E366E27CE272E288E286A39CA3928
:100470002A3A8A3A6A2BCA2B2A2C8A2C663DC63D18
:10048000263E863E662FC62F1D6173002030000079
:10049000000000000000000000000000000000005C
:1004A000000000000000000000000000000000004C
:1004B000000000000000000000000000000000003C
:1004C000000000000000000000000000000000002C
:1004D000000000000000000000000000000000001C
:1004E000000000000000000000000000000000000C
:1004F00000000000000000000000000000000000FC
:1005000000000000000000000000000000000000EB
:1005100000000000000000000000000000000000DB
:1005200000000000000000000000000000000000CB
:1005300000000000000000000000000000000000BB
:1005400000000000000000000000000000000000AB
:10055000000000000000000000000000000000009B
:10056000000000000000000000000000000000008B
:10057000000000000000000000000000000000007B
:10058000000000000000000000000000000000006B
:10059000000000000000000000000000000000005B
:1005A000000000000000000000000000000000004B
:1005B000000000000000000000000000000000003B
:1005C000000000000000000000000000000000002B
:1005D000000000000000000000000000000000001B
:1005E000000000000000000000000000000000000B
:1005F00000000000000000000000000000000000FB
:1006000008020000040200000402000004020000CE
:1006100004020000040200000402000004020000C2
:1006200004020000040200000402000004020000B2
:1006300004020000040200000402000004020000A2
:100640000402000004020000040200000402000092
:100650000402000004020000040200000402000082
:100660000402000004020000040200000402000072
:100670000402000004020000040200000402000062
:100680000402000004020000040200000402000052
:100690000402000004020000040200000402000042
:1006A0000402000004020000040200000402000032
:1006B0000402000004020000040200000402000022
:1006C0000402000004020000040200000402000012
:1006D0000402000004020000040200000402000002
:1006E00004020000040200000402000004020000F2
:1006F00004020000040200000402000004020000E2
:1007000004020000040200000402000004020000D1
:1007100004020000040200000402000004020000C1
:1007200004020000040200000402000004020000B1
:1007300004020000040200000402000004020000A1
:100740000402000004020000040200000402000091
:100750000402000004020000040200000402000081
:100760000402000004020000040200000402000071
:100770000402000004020000040200000402000061
:100780000402000004020000040200000402000051
:100790000402000004020000040200000402000041
:1007A0000402000004020000040200000402000031
:1007B0000402000004020000040200000402000021
:1007C0000402000004020000040200000402000011
:1007D0000402000004020000040200000402000001
:1007E00004020000040200000402000004020000F1
:1007F00004020000040200000402000004020000E1
:10080000011106CE22CC0010F327A07C2326F4FE93
:100810008327C4FE0100898BB337F00093F7F70FED
:1008200093C7170093F7F70F91C7AD2093072040A8
:1008300073A0A77C0100F24062440561828001112F
:1008400022CE0010F327A07C2326F4FE8327C4FECB
:100850000100858BB337F00093F7F70F93C71700AC
:1008600093F7F70F89C79307103073A0A77C010097
:10087000724405618280011122CE0010DD47A3077A
:10088000F4FE8347F4FE7390C77C010001007244BC
:1008900005618280411122C60008996773A0A77C78
:1008A00001003244410182805D71A2C680088567E3
:1008B0009387078073B047300100232204FE232072
:1008C00004FEB70700E4232EF4FC832744FE232C08
:1008D000F4FC832704FE232AF4FC832784FD13976A
:1008E000C7008327C4FD3E97B7072000BA97232887
:1008F000F4FC832704FD032744FD98C30100010095
:10090000232604FEA1A8232604FC8327C4FE232457
:10091000F4FCB70700E42322F4FC8327C4FC232063
:10092000F4FC832784FC232EF4FA832704FC13971A
:10093000C700832744FC3E97B70720009107BA976A
:10094000232CF4FA832784FB0327C4FB98C30100FC
:1009500001008327C4FE85072326F4FE0327C4FE77
:100960009307F007E3F1E7FA232404FE39A883276D
:1009700084FE13972700B72700E4BA9723A0070047
:10098000832784FE85072324F4FE032784FE8D47F6
:10099000E3FFE7FC01000100364461618280011140
:1009A00022CE0010B707080113870700B707080118
:1009B00093870700B307F7402324F4FE232604FEA1
:1009C00039A80327C4FEB707080193870700BA9721
:1009D000238007008327C4FE85072326F4FE032710
:1009E000C4FE832784FEE36EF7FCB707100113876C
:1009F0000700B707100193870700B307F7402324C8
:100A0000F4FE232604FE39A80327C4FEB70710010D
:100A100093870700BA97238007008327C4FE8507C2
:100A20002326F4FE0327C4FE832784FEE36EF7FC2F
:100A3000B707080013870700B70708009387070068
:100A4000B307F7402324F4FE232604FE39A8032726
:100A5000C4FEB707080093870700BA9723800700F2
:100A60008327C4FE85072326F4FE0327C4FE8327BD
:100A700084FEE36EF7FCB707080113870700B7078A
:100A8000080193870700B307F7402324F4FE2326C9
:100A900004FE3DA00327C4FE8567938707E93E97C0
:100AA0008326C4FEB707080193870700B69703475C
:100AB00007002380E7008327C4FE85072326F4FE72
:100AC0000327C4FE832784FEE366F7FC856713874C
:100AD00007E98567938707E9B307F7402324F4FE06
:100AE000232604FE35A00327C4FE8567938707E904
:100AF0003E978326C4FE8567938707E9B697034729
:100B000007002380E7008327C4FE85072326F4FE21
:100B10000327C4FE832784FEE367F7FCB7070801B9
:100B200013870700B707080193870700B307F7404B
:100B30002324F4FE232604FE3DA00327C4FE85677C
:100B4000938707E93E978326C4FEB707080193877A
:100B50000700B697034707002380E7008327C4FEFA
:100B600085072326F4FE0327C4FE832784FEE3665D
:100B7000F7FCB707100113870700B7071001938729
:100B80000700B307F7402324F4FE232604FE3DA00C
:100B90000327C4FE8567938707E93E978326C4FE33
:100BA000B707100193870700B69703470700238014
:100BB000E7008327C4FE85072326F4FE0327C4FE2F
:100BC000832784FEE366F7FCB70708001387070056
:100BD000B707080093870700B307F7402324F4FE04
:100BE000232604FE3DA00327C4FE8567938707E9FB
:100BF0003E978326C4FEB707080093870700B69781
:100C0000034707002380E7008327C4FE85072326C8
:100C1000F4FE0327C4FE832784FEE366F7FC01008D
:100C20000100724405618280411106C622C4000899
:100C30002922D52A0100B24022444101828041117B
:100C400022C600080100324441018280011106CE13
:100C500022CC0010B707080113870700B707080167
:100C600093870700B307F74089872324F4FE2326E0
:100C700004FE05A0B7070801138707008327C4FEF9
:100C80008A07BA979C4382978327C4FE8507232649
:100C9000F4FE0327C4FE832784FEE36DF7FCB70749
:100CA000080113870700B707080193870700B307F8
:100CB000F74089872324F4FE232604FE05A0B70706
:100CC0000801138707008327C4FE8A07BA979C434D
:100CD00082978327C4FE85072326F4FE0327C4FEDC
:100CE000832784FEE36DF7FC01000100F2406244BB
:100CF00005618280011122CE0010232604FE832785
:100D0000C4FE93E727002326F4FE8327C4FE93E75F
:100D100017002326F4FEB70700E42324F4FE8327FC
:100D2000C4FE2322F4FE832784FE032744FE98C3D7
:100D300001000100724405618280797106D622D4D7
:100D40000018A1472320F4FE232E04FC832704FE71
:100D5000F3B70730232EF4FC8327C4FD0100856719
:100D60009387078073B047300100693785679387A1
:100D7000078073A047300100A1472322F4FE832798
:100D800044FE73A007300100F32760302326F4FEF1
:100D90008327C4FE2324F4FE832784FE93E71700F1
:100DA000739067300100B250225445618280411136
:100DB00022C600080100324441018280411122C64E
:100DC00000080100324441018280797122D6001866
:100DD0002326A4FE2324B4FE2322C4FE2320D4FE13
:100DE000232EE4FC0100325445618280011122CEA1
:100DF00000102326A4FE2324B4FE0327C4FEBD470F
:100E000063ECE7008327C4FE139727008567938769
:100E100007E5BA979C4382870100832784FE3E85BD
:100E2000724405618280011122CE0010BD47232645
:100E3000F4FEB5472324F4FE0327C4FE832784FE73
:100E4000BA972322F4FE01007244056182800000FB
:100E5000180E0000180E0000180E0000180E0000FA
:100E6000180E0000180E0000180E0000180E0000EA
:100E7000180E0000180E0000180E0000180E0000DA
:100E8000180E0000180E0000180E0000180E0000CA
:00000001FF
